{
	"Certificates.sol": {
		"Certificates": {
			"abi": [
				{
					"inputs": [],
					"stateMutability": "nonpayable",
					"type": "constructor"
				},
				{
					"anonymous": false,
					"inputs": [
						{
							"indexed": true,
							"internalType": "uint256",
							"name": "certificateId",
							"type": "uint256"
						},
						{
							"indexed": false,
							"internalType": "string",
							"name": "holderName",
							"type": "string"
						},
						{
							"indexed": false,
							"internalType": "string",
							"name": "courseName",
							"type": "string"
						}
					],
					"name": "CertificateIssued",
					"type": "event"
				},
				{
					"inputs": [
						{
							"internalType": "uint256",
							"name": "",
							"type": "uint256"
						}
					],
					"name": "certificates",
					"outputs": [
						{
							"internalType": "string",
							"name": "holderName",
							"type": "string"
						},
						{
							"internalType": "string",
							"name": "courseName",
							"type": "string"
						},
						{
							"internalType": "string",
							"name": "issueDate",
							"type": "string"
						},
						{
							"internalType": "bool",
							"name": "isValid",
							"type": "bool"
						}
					],
					"stateMutability": "view",
					"type": "function"
				},
				{
					"inputs": [
						{
							"internalType": "uint256",
							"name": "_certificateId",
							"type": "uint256"
						}
					],
					"name": "isCertificateValid",
					"outputs": [
						{
							"internalType": "bool",
							"name": "",
							"type": "bool"
						}
					],
					"stateMutability": "view",
					"type": "function"
				},
				{
					"inputs": [
						{
							"internalType": "uint256",
							"name": "_certificateId",
							"type": "uint256"
						},
						{
							"internalType": "string",
							"name": "_holderName",
							"type": "string"
						},
						{
							"internalType": "string",
							"name": "_courseName",
							"type": "string"
						},
						{
							"internalType": "string",
							"name": "_issueDate",
							"type": "string"
						}
					],
					"name": "issueCertificate",
					"outputs": [],
					"stateMutability": "nonpayable",
					"type": "function"
				},
				{
					"inputs": [],
					"name": "owner",
					"outputs": [
						{
							"internalType": "address",
							"name": "",
							"type": "address"
						}
					],
					"stateMutability": "view",
					"type": "function"
				},
				{
					"inputs": [
						{
							"internalType": "uint256",
							"name": "_certificateId",
							"type": "uint256"
						}
					],
					"name": "revokeCertificate",
					"outputs": [],
					"stateMutability": "nonpayable",
					"type": "function"
				}
			],
			"devdoc": {
				"kind": "dev",
				"methods": {},
				"version": 1
			},
			"evm": {
				"assembly": "    /* \"Certificates.sol\":60:2155  contract Certificates {... */\n  mstore(0x40, 0x80)\n    /* \"Certificates.sol\":755:806  constructor() {... */\n  callvalue\n  dup1\n  iszero\n  tag_1\n  jumpi\n  0x00\n  dup1\n  revert\ntag_1:\n  pop\n    /* \"Certificates.sol\":788:798  msg.sender */\n  caller\n    /* \"Certificates.sol\":780:785  owner */\n  0x00\n  dup1\n    /* \"Certificates.sol\":780:798  owner = msg.sender */\n  0x0100\n  exp\n  dup2\n  sload\n  dup2\n  0xffffffffffffffffffffffffffffffffffffffff\n  mul\n  not\n  and\n  swap1\n  dup4\n  0xffffffffffffffffffffffffffffffffffffffff\n  and\n  mul\n  or\n  swap1\n  sstore\n  pop\n    /* \"Certificates.sol\":60:2155  contract Certificates {... */\n  dataSize(sub_0)\n  dup1\n  dataOffset(sub_0)\n  0x00\n  codecopy\n  0x00\n  return\nstop\n\nsub_0: assembly {\n        /* \"Certificates.sol\":60:2155  contract Certificates {... */\n      mstore(0x40, 0x80)\n      callvalue\n      dup1\n      iszero\n      tag_1\n      jumpi\n      0x00\n      dup1\n      revert\n    tag_1:\n      pop\n      jumpi(tag_2, lt(calldatasize, 0x04))\n      shr(0xe0, calldataload(0x00))\n      dup1\n      0x06f5497e\n      eq\n      tag_3\n      jumpi\n      dup1\n      0x663b3e22\n      eq\n      tag_4\n      jumpi\n      dup1\n      0x7cd44c23\n      eq\n      tag_5\n      jumpi\n      dup1\n      0x8da5cb5b\n      eq\n      tag_6\n      jumpi\n      dup1\n      0xa5ce413a\n      eq\n      tag_7\n      jumpi\n    tag_2:\n      0x00\n      dup1\n      revert\n        /* \"Certificates.sol\":1708:1942  function revokeCertificate(uint256 _certificateId) public onlyOwner {... */\n    tag_3:\n      tag_8\n      0x04\n      dup1\n      calldatasize\n      sub\n      dup2\n      add\n      swap1\n      tag_9\n      swap2\n      swap1\n      tag_10\n      jump\t// in\n    tag_9:\n      tag_11\n      jump\t// in\n    tag_8:\n      stop\n        /* \"Certificates.sol\":486:537  mapping(uint256 => Certificate) public certificates */\n    tag_4:\n      tag_12\n      0x04\n      dup1\n      calldatasize\n      sub\n      dup2\n      add\n      swap1\n      tag_13\n      swap2\n      swap1\n      tag_10\n      jump\t// in\n    tag_13:\n      tag_14\n      jump\t// in\n    tag_12:\n      mload(0x40)\n      tag_15\n      swap5\n      swap4\n      swap3\n      swap2\n      swap1\n      tag_16\n      jump\t// in\n    tag_15:\n      mload(0x40)\n      dup1\n      swap2\n      sub\n      swap1\n      return\n        /* \"Certificates.sol\":1057:1653  function issueCertificate(... */\n    tag_5:\n      tag_17\n      0x04\n      dup1\n      calldatasize\n      sub\n      dup2\n      add\n      swap1\n      tag_18\n      swap2\n      swap1\n      tag_19\n      jump\t// in\n    tag_18:\n      tag_20\n      jump\t// in\n    tag_17:\n      stop\n        /* \"Certificates.sol\":123:143  address public owner */\n    tag_6:\n      tag_21\n      tag_22\n      jump\t// in\n    tag_21:\n      mload(0x40)\n      tag_23\n      swap2\n      swap1\n      tag_24\n      jump\t// in\n    tag_23:\n      mload(0x40)\n      dup1\n      swap2\n      sub\n      swap1\n      return\n        /* \"Certificates.sol\":2011:2152  function isCertificateValid(uint256 _certificateId) public view returns (bool) {... */\n    tag_7:\n      tag_25\n      0x04\n      dup1\n      calldatasize\n      sub\n      dup2\n      add\n      swap1\n      tag_26\n      swap2\n      swap1\n      tag_10\n      jump\t// in\n    tag_26:\n      tag_27\n      jump\t// in\n    tag_25:\n      mload(0x40)\n      tag_28\n      swap2\n      swap1\n      tag_29\n      jump\t// in\n    tag_28:\n      mload(0x40)\n      dup1\n      swap2\n      sub\n      swap1\n      return\n        /* \"Certificates.sol\":1708:1942  function revokeCertificate(uint256 _certificateId) public onlyOwner {... */\n    tag_11:\n        /* \"Certificates.sol\":931:936  owner */\n      0x00\n      dup1\n      sload\n      swap1\n      0x0100\n      exp\n      swap1\n      div\n      0xffffffffffffffffffffffffffffffffffffffff\n      and\n        /* \"Certificates.sol\":917:936  msg.sender == owner */\n      0xffffffffffffffffffffffffffffffffffffffff\n      and\n        /* \"Certificates.sol\":917:927  msg.sender */\n      caller\n        /* \"Certificates.sol\":917:936  msg.sender == owner */\n      0xffffffffffffffffffffffffffffffffffffffff\n      and\n      eq\n        /* \"Certificates.sol\":909:980  require(msg.sender == owner, \"Only the owner can execute this action.\") */\n      tag_31\n      jumpi\n      mload(0x40)\n      0x08c379a000000000000000000000000000000000000000000000000000000000\n      dup2\n      mstore\n      0x04\n      add\n      tag_32\n      swap1\n      tag_33\n      jump\t// in\n    tag_32:\n      mload(0x40)\n      dup1\n      swap2\n      sub\n      swap1\n      revert\n    tag_31:\n        /* \"Certificates.sol\":1795:1807  certificates */\n      0x01\n        /* \"Certificates.sol\":1795:1823  certificates[_certificateId] */\n      0x00\n        /* \"Certificates.sol\":1808:1822  _certificateId */\n      dup3\n        /* \"Certificates.sol\":1795:1823  certificates[_certificateId] */\n      dup2\n      mstore\n      0x20\n      add\n      swap1\n      dup2\n      mstore\n      0x20\n      add\n      0x00\n      keccak256\n        /* \"Certificates.sol\":1795:1831  certificates[_certificateId].isValid */\n      0x03\n      add\n      0x00\n      swap1\n      sload\n      swap1\n      0x0100\n      exp\n      swap1\n      div\n      0xff\n      and\n        /* \"Certificates.sol\":1787:1879  require(certificates[_certificateId].isValid, \"Certificate doesn't found or doesn't exist.\") */\n      tag_35\n      jumpi\n      mload(0x40)\n      0x08c379a000000000000000000000000000000000000000000000000000000000\n      dup2\n      mstore\n      0x04\n      add\n      tag_36\n      swap1\n      tag_37\n      jump\t// in\n    tag_36:\n      mload(0x40)\n      dup1\n      swap2\n      sub\n      swap1\n      revert\n    tag_35:\n        /* \"Certificates.sol\":1929:1934  false */\n      0x00\n        /* \"Certificates.sol\":1890:1902  certificates */\n      0x01\n        /* \"Certificates.sol\":1890:1918  certificates[_certificateId] */\n      0x00\n        /* \"Certificates.sol\":1903:1917  _certificateId */\n      dup4\n        /* \"Certificates.sol\":1890:1918  certificates[_certificateId] */\n      dup2\n      mstore\n      0x20\n      add\n      swap1\n      dup2\n      mstore\n      0x20\n      add\n      0x00\n      keccak256\n        /* \"Certificates.sol\":1890:1926  certificates[_certificateId].isValid */\n      0x03\n      add\n      0x00\n        /* \"Certificates.sol\":1890:1934  certificates[_certificateId].isValid = false */\n      0x0100\n      exp\n      dup2\n      sload\n      dup2\n      0xff\n      mul\n      not\n      and\n      swap1\n      dup4\n      iszero\n      iszero\n      mul\n      or\n      swap1\n      sstore\n      pop\n        /* \"Certificates.sol\":1708:1942  function revokeCertificate(uint256 _certificateId) public onlyOwner {... */\n      pop\n      jump\t// out\n        /* \"Certificates.sol\":486:537  mapping(uint256 => Certificate) public certificates */\n    tag_14:\n      mstore(0x20, 0x01)\n      dup1\n      0x00\n      mstore\n      keccak256(0x00, 0x40)\n      0x00\n      swap2\n      pop\n      swap1\n      pop\n      dup1\n      0x00\n      add\n      dup1\n      sload\n      tag_38\n      swap1\n      tag_39\n      jump\t// in\n    tag_38:\n      dup1\n      0x1f\n      add\n      0x20\n      dup1\n      swap2\n      div\n      mul\n      0x20\n      add\n      mload(0x40)\n      swap1\n      dup2\n      add\n      0x40\n      mstore\n      dup1\n      swap3\n      swap2\n      swap1\n      dup2\n      dup2\n      mstore\n      0x20\n      add\n      dup3\n      dup1\n      sload\n      tag_40\n      swap1\n      tag_39\n      jump\t// in\n    tag_40:\n      dup1\n      iszero\n      tag_41\n      jumpi\n      dup1\n      0x1f\n      lt\n      tag_42\n      jumpi\n      0x0100\n      dup1\n      dup4\n      sload\n      div\n      mul\n      dup4\n      mstore\n      swap2\n      0x20\n      add\n      swap2\n      jump(tag_41)\n    tag_42:\n      dup3\n      add\n      swap2\n      swap1\n      0x00\n      mstore\n      keccak256(0x00, 0x20)\n      swap1\n    tag_43:\n      dup2\n      sload\n      dup2\n      mstore\n      swap1\n      0x01\n      add\n      swap1\n      0x20\n      add\n      dup1\n      dup4\n      gt\n      tag_43\n      jumpi\n      dup3\n      swap1\n      sub\n      0x1f\n      and\n      dup3\n      add\n      swap2\n    tag_41:\n      pop\n      pop\n      pop\n      pop\n      pop\n      swap1\n      dup1\n      0x01\n      add\n      dup1\n      sload\n      tag_44\n      swap1\n      tag_39\n      jump\t// in\n    tag_44:\n      dup1\n      0x1f\n      add\n      0x20\n      dup1\n      swap2\n      div\n      mul\n      0x20\n      add\n      mload(0x40)\n      swap1\n      dup2\n      add\n      0x40\n      mstore\n      dup1\n      swap3\n      swap2\n      swap1\n      dup2\n      dup2\n      mstore\n      0x20\n      add\n      dup3\n      dup1\n      sload\n      tag_45\n      swap1\n      tag_39\n      jump\t// in\n    tag_45:\n      dup1\n      iszero\n      tag_46\n      jumpi\n      dup1\n      0x1f\n      lt\n      tag_47\n      jumpi\n      0x0100\n      dup1\n      dup4\n      sload\n      div\n      mul\n      dup4\n      mstore\n      swap2\n      0x20\n      add\n      swap2\n      jump(tag_46)\n    tag_47:\n      dup3\n      add\n      swap2\n      swap1\n      0x00\n      mstore\n      keccak256(0x00, 0x20)\n      swap1\n    tag_48:\n      dup2\n      sload\n      dup2\n      mstore\n      swap1\n      0x01\n      add\n      swap1\n      0x20\n      add\n      dup1\n      dup4\n      gt\n      tag_48\n      jumpi\n      dup3\n      swap1\n      sub\n      0x1f\n      and\n      dup3\n      add\n      swap2\n    tag_46:\n      pop\n      pop\n      pop\n      pop\n      pop\n      swap1\n      dup1\n      0x02\n      add\n      dup1\n      sload\n      tag_49\n      swap1\n      tag_39\n      jump\t// in\n    tag_49:\n      dup1\n      0x1f\n      add\n      0x20\n      dup1\n      swap2\n      div\n      mul\n      0x20\n      add\n      mload(0x40)\n      swap1\n      dup2\n      add\n      0x40\n      mstore\n      dup1\n      swap3\n      swap2\n      swap1\n      dup2\n      dup2\n      mstore\n      0x20\n      add\n      dup3\n      dup1\n      sload\n      tag_50\n      swap1\n      tag_39\n      jump\t// in\n    tag_50:\n      dup1\n      iszero\n      tag_51\n      jumpi\n      dup1\n      0x1f\n      lt\n      tag_52\n      jumpi\n      0x0100\n      dup1\n      dup4\n      sload\n      div\n      mul\n      dup4\n      mstore\n      swap2\n      0x20\n      add\n      swap2\n      jump(tag_51)\n    tag_52:\n      dup3\n      add\n      swap2\n      swap1\n      0x00\n      mstore\n      keccak256(0x00, 0x20)\n      swap1\n    tag_53:\n      dup2\n      sload\n      dup2\n      mstore\n      swap1\n      0x01\n      add\n      swap1\n      0x20\n      add\n      dup1\n      dup4\n      gt\n      tag_53\n      jumpi\n      dup3\n      swap1\n      sub\n      0x1f\n      and\n      dup3\n      add\n      swap2\n    tag_51:\n      pop\n      pop\n      pop\n      pop\n      pop\n      swap1\n      dup1\n      0x03\n      add\n      0x00\n      swap1\n      sload\n      swap1\n      0x0100\n      exp\n      swap1\n      div\n      0xff\n      and\n      swap1\n      pop\n      dup5\n      jump\t// out\n        /* \"Certificates.sol\":1057:1653  function issueCertificate(... */\n    tag_20:\n        /* \"Certificates.sol\":931:936  owner */\n      0x00\n      dup1\n      sload\n      swap1\n      0x0100\n      exp\n      swap1\n      div\n      0xffffffffffffffffffffffffffffffffffffffff\n      and\n        /* \"Certificates.sol\":917:936  msg.sender == owner */\n      0xffffffffffffffffffffffffffffffffffffffff\n      and\n        /* \"Certificates.sol\":917:927  msg.sender */\n      caller\n        /* \"Certificates.sol\":917:936  msg.sender == owner */\n      0xffffffffffffffffffffffffffffffffffffffff\n      and\n      eq\n        /* \"Certificates.sol\":909:980  require(msg.sender == owner, \"Only the owner can execute this action.\") */\n      tag_55\n      jumpi\n      mload(0x40)\n      0x08c379a000000000000000000000000000000000000000000000000000000000\n      dup2\n      mstore\n      0x04\n      add\n      tag_56\n      swap1\n      tag_33\n      jump\t// in\n    tag_56:\n      mload(0x40)\n      dup1\n      swap2\n      sub\n      swap1\n      revert\n    tag_55:\n        /* \"Certificates.sol\":1267:1279  certificates */\n      0x01\n        /* \"Certificates.sol\":1267:1295  certificates[_certificateId] */\n      0x00\n        /* \"Certificates.sol\":1280:1294  _certificateId */\n      dup6\n        /* \"Certificates.sol\":1267:1295  certificates[_certificateId] */\n      dup2\n      mstore\n      0x20\n      add\n      swap1\n      dup2\n      mstore\n      0x20\n      add\n      0x00\n      keccak256\n        /* \"Certificates.sol\":1267:1303  certificates[_certificateId].isValid */\n      0x03\n      add\n      0x00\n      swap1\n      sload\n      swap1\n      0x0100\n      exp\n      swap1\n      div\n      0xff\n      and\n        /* \"Certificates.sol\":1266:1303  !certificates[_certificateId].isValid */\n      iszero\n        /* \"Certificates.sol\":1258:1360  require(!certificates[_certificateId].isValid, \"Certificate with this ID certificate already exists.\") */\n      tag_58\n      jumpi\n      mload(0x40)\n      0x08c379a000000000000000000000000000000000000000000000000000000000\n      dup2\n      mstore\n      0x04\n      add\n      tag_59\n      swap1\n      tag_60\n      jump\t// in\n    tag_59:\n      mload(0x40)\n      dup1\n      swap2\n      sub\n      swap1\n      revert\n    tag_58:\n        /* \"Certificates.sol\":1404:1568  Certificate({... */\n      mload(0x40)\n      dup1\n      0x80\n      add\n      0x40\n      mstore\n      dup1\n        /* \"Certificates.sol\":1443:1454  _holderName */\n      dup5\n        /* \"Certificates.sol\":1404:1568  Certificate({... */\n      dup2\n      mstore\n      0x20\n      add\n        /* \"Certificates.sol\":1481:1492  _courseName */\n      dup4\n        /* \"Certificates.sol\":1404:1568  Certificate({... */\n      dup2\n      mstore\n      0x20\n      add\n        /* \"Certificates.sol\":1518:1528  _issueDate */\n      dup3\n        /* \"Certificates.sol\":1404:1568  Certificate({... */\n      dup2\n      mstore\n      0x20\n      add\n        /* \"Certificates.sol\":1552:1556  true */\n      0x01\n        /* \"Certificates.sol\":1404:1568  Certificate({... */\n      iszero\n      iszero\n      dup2\n      mstore\n      pop\n        /* \"Certificates.sol\":1373:1385  certificates */\n      0x01\n        /* \"Certificates.sol\":1373:1401  certificates[_certificateId] */\n      0x00\n        /* \"Certificates.sol\":1386:1400  _certificateId */\n      dup7\n        /* \"Certificates.sol\":1373:1401  certificates[_certificateId] */\n      dup2\n      mstore\n      0x20\n      add\n      swap1\n      dup2\n      mstore\n      0x20\n      add\n      0x00\n      keccak256\n        /* \"Certificates.sol\":1373:1568  certificates[_certificateId] = Certificate({... */\n      0x00\n      dup3\n      add\n      mload\n      dup2\n      0x00\n      add\n      swap1\n      dup2\n      tag_61\n      swap2\n      swap1\n      tag_62\n      jump\t// in\n    tag_61:\n      pop\n      0x20\n      dup3\n      add\n      mload\n      dup2\n      0x01\n      add\n      swap1\n      dup2\n      tag_63\n      swap2\n      swap1\n      tag_62\n      jump\t// in\n    tag_63:\n      pop\n      0x40\n      dup3\n      add\n      mload\n      dup2\n      0x02\n      add\n      swap1\n      dup2\n      tag_64\n      swap2\n      swap1\n      tag_62\n      jump\t// in\n    tag_64:\n      pop\n      0x60\n      dup3\n      add\n      mload\n      dup2\n      0x03\n      add\n      exp(0x0100, 0x00)\n      dup2\n      sload\n      dup2\n      0xff\n      mul\n      not\n      and\n      swap1\n      dup4\n      iszero\n      iszero\n      mul\n      or\n      swap1\n      sstore\n      pop\n      swap1\n      pop\n      pop\n        /* \"Certificates.sol\":1604:1618  _certificateId */\n      dup4\n        /* \"Certificates.sol\":1586:1645  CertificateIssued(_certificateId, _holderName, _courseName) */\n      0x55e235e38225040825e04ea5d7545c53f47415b5543ec6bf898aa3a96742d5f9\n        /* \"Certificates.sol\":1620:1631  _holderName */\n      dup5\n        /* \"Certificates.sol\":1633:1644  _courseName */\n      dup5\n        /* \"Certificates.sol\":1586:1645  CertificateIssued(_certificateId, _holderName, _courseName) */\n      mload(0x40)\n      tag_65\n      swap3\n      swap2\n      swap1\n      tag_66\n      jump\t// in\n    tag_65:\n      mload(0x40)\n      dup1\n      swap2\n      sub\n      swap1\n      log2\n        /* \"Certificates.sol\":1057:1653  function issueCertificate(... */\n      pop\n      pop\n      pop\n      pop\n      jump\t// out\n        /* \"Certificates.sol\":123:143  address public owner */\n    tag_22:\n      0x00\n      dup1\n      sload\n      swap1\n      0x0100\n      exp\n      swap1\n      div\n      0xffffffffffffffffffffffffffffffffffffffff\n      and\n      dup2\n      jump\t// out\n        /* \"Certificates.sol\":2011:2152  function isCertificateValid(uint256 _certificateId) public view returns (bool) {... */\n    tag_27:\n        /* \"Certificates.sol\":2084:2088  bool */\n      0x00\n        /* \"Certificates.sol\":2108:2120  certificates */\n      0x01\n        /* \"Certificates.sol\":2108:2136  certificates[_certificateId] */\n      0x00\n        /* \"Certificates.sol\":2121:2135  _certificateId */\n      dup4\n        /* \"Certificates.sol\":2108:2136  certificates[_certificateId] */\n      dup2\n      mstore\n      0x20\n      add\n      swap1\n      dup2\n      mstore\n      0x20\n      add\n      0x00\n      keccak256\n        /* \"Certificates.sol\":2108:2144  certificates[_certificateId].isValid */\n      0x03\n      add\n      0x00\n      swap1\n      sload\n      swap1\n      0x0100\n      exp\n      swap1\n      div\n      0xff\n      and\n        /* \"Certificates.sol\":2101:2144  return certificates[_certificateId].isValid */\n      swap1\n      pop\n        /* \"Certificates.sol\":2011:2152  function isCertificateValid(uint256 _certificateId) public view returns (bool) {... */\n      swap2\n      swap1\n      pop\n      jump\t// out\n        /* \"#utility.yul\":7:82   */\n    tag_68:\n        /* \"#utility.yul\":40:46   */\n      0x00\n        /* \"#utility.yul\":73:75   */\n      0x40\n        /* \"#utility.yul\":67:76   */\n      mload\n        /* \"#utility.yul\":57:76   */\n      swap1\n      pop\n        /* \"#utility.yul\":7:82   */\n      swap1\n      jump\t// out\n        /* \"#utility.yul\":88:205   */\n    tag_69:\n        /* \"#utility.yul\":197:198   */\n      0x00\n        /* \"#utility.yul\":194:195   */\n      dup1\n        /* \"#utility.yul\":187:199   */\n      revert\n        /* \"#utility.yul\":211:328   */\n    tag_70:\n        /* \"#utility.yul\":320:321   */\n      0x00\n        /* \"#utility.yul\":317:318   */\n      dup1\n        /* \"#utility.yul\":310:322   */\n      revert\n        /* \"#utility.yul\":334:411   */\n    tag_71:\n        /* \"#utility.yul\":371:378   */\n      0x00\n        /* \"#utility.yul\":400:405   */\n      dup2\n        /* \"#utility.yul\":389:405   */\n      swap1\n      pop\n        /* \"#utility.yul\":334:411   */\n      swap2\n      swap1\n      pop\n      jump\t// out\n        /* \"#utility.yul\":417:539   */\n    tag_72:\n        /* \"#utility.yul\":490:514   */\n      tag_121\n        /* \"#utility.yul\":508:513   */\n      dup2\n        /* \"#utility.yul\":490:514   */\n      tag_71\n      jump\t// in\n    tag_121:\n        /* \"#utility.yul\":483:488   */\n      dup2\n        /* \"#utility.yul\":480:515   */\n      eq\n        /* \"#utility.yul\":470:533   */\n      tag_122\n      jumpi\n        /* \"#utility.yul\":529:530   */\n      0x00\n        /* \"#utility.yul\":526:527   */\n      dup1\n        /* \"#utility.yul\":519:531   */\n      revert\n        /* \"#utility.yul\":470:533   */\n    tag_122:\n        /* \"#utility.yul\":417:539   */\n      pop\n      jump\t// out\n        /* \"#utility.yul\":545:684   */\n    tag_73:\n        /* \"#utility.yul\":591:596   */\n      0x00\n        /* \"#utility.yul\":629:635   */\n      dup2\n        /* \"#utility.yul\":616:636   */\n      calldataload\n        /* \"#utility.yul\":607:636   */\n      swap1\n      pop\n        /* \"#utility.yul\":645:678   */\n      tag_124\n        /* \"#utility.yul\":672:677   */\n      dup2\n        /* \"#utility.yul\":645:678   */\n      tag_72\n      jump\t// in\n    tag_124:\n        /* \"#utility.yul\":545:684   */\n      swap3\n      swap2\n      pop\n      pop\n      jump\t// out\n        /* \"#utility.yul\":690:1019   */\n    tag_10:\n        /* \"#utility.yul\":749:755   */\n      0x00\n        /* \"#utility.yul\":798:800   */\n      0x20\n        /* \"#utility.yul\":786:795   */\n      dup3\n        /* \"#utility.yul\":777:784   */\n      dup5\n        /* \"#utility.yul\":773:796   */\n      sub\n        /* \"#utility.yul\":769:801   */\n      slt\n        /* \"#utility.yul\":766:885   */\n      iszero\n      tag_126\n      jumpi\n        /* \"#utility.yul\":804:883   */\n      tag_127\n      tag_69\n      jump\t// in\n    tag_127:\n        /* \"#utility.yul\":766:885   */\n    tag_126:\n        /* \"#utility.yul\":924:925   */\n      0x00\n        /* \"#utility.yul\":949:1002   */\n      tag_128\n        /* \"#utility.yul\":994:1001   */\n      dup5\n        /* \"#utility.yul\":985:991   */\n      dup3\n        /* \"#utility.yul\":974:983   */\n      dup6\n        /* \"#utility.yul\":970:992   */\n      add\n        /* \"#utility.yul\":949:1002   */\n      tag_73\n      jump\t// in\n    tag_128:\n        /* \"#utility.yul\":939:1002   */\n      swap2\n      pop\n        /* \"#utility.yul\":895:1012   */\n      pop\n        /* \"#utility.yul\":690:1019   */\n      swap3\n      swap2\n      pop\n      pop\n      jump\t// out\n        /* \"#utility.yul\":1025:1124   */\n    tag_74:\n        /* \"#utility.yul\":1077:1083   */\n      0x00\n        /* \"#utility.yul\":1111:1116   */\n      dup2\n        /* \"#utility.yul\":1105:1117   */\n      mload\n        /* \"#utility.yul\":1095:1117   */\n      swap1\n      pop\n        /* \"#utility.yul\":1025:1124   */\n      swap2\n      swap1\n      pop\n      jump\t// out\n        /* \"#utility.yul\":1130:1299   */\n    tag_75:\n        /* \"#utility.yul\":1214:1225   */\n      0x00\n        /* \"#utility.yul\":1248:1254   */\n      dup3\n        /* \"#utility.yul\":1243:1246   */\n      dup3\n        /* \"#utility.yul\":1236:1255   */\n      mstore\n        /* \"#utility.yul\":1288:1292   */\n      0x20\n        /* \"#utility.yul\":1283:1286   */\n      dup3\n        /* \"#utility.yul\":1279:1293   */\n      add\n        /* \"#utility.yul\":1264:1293   */\n      swap1\n      pop\n        /* \"#utility.yul\":1130:1299   */\n      swap3\n      swap2\n      pop\n      pop\n      jump\t// out\n        /* \"#utility.yul\":1305:1444   */\n    tag_76:\n        /* \"#utility.yul\":1394:1400   */\n      dup3\n        /* \"#utility.yul\":1389:1392   */\n      dup2\n        /* \"#utility.yul\":1384:1387   */\n      dup4\n        /* \"#utility.yul\":1378:1401   */\n      mcopy\n        /* \"#utility.yul\":1435:1436   */\n      0x00\n        /* \"#utility.yul\":1426:1432   */\n      dup4\n        /* \"#utility.yul\":1421:1424   */\n      dup4\n        /* \"#utility.yul\":1417:1433   */\n      add\n        /* \"#utility.yul\":1410:1437   */\n      mstore\n        /* \"#utility.yul\":1305:1444   */\n      pop\n      pop\n      pop\n      jump\t// out\n        /* \"#utility.yul\":1450:1552   */\n    tag_77:\n        /* \"#utility.yul\":1491:1497   */\n      0x00\n        /* \"#utility.yul\":1542:1544   */\n      0x1f\n        /* \"#utility.yul\":1538:1545   */\n      not\n        /* \"#utility.yul\":1533:1535   */\n      0x1f\n        /* \"#utility.yul\":1526:1531   */\n      dup4\n        /* \"#utility.yul\":1522:1536   */\n      add\n        /* \"#utility.yul\":1518:1546   */\n      and\n        /* \"#utility.yul\":1508:1546   */\n      swap1\n      pop\n        /* \"#utility.yul\":1450:1552   */\n      swap2\n      swap1\n      pop\n      jump\t// out\n        /* \"#utility.yul\":1558:1935   */\n    tag_78:\n        /* \"#utility.yul\":1646:1649   */\n      0x00\n        /* \"#utility.yul\":1674:1713   */\n      tag_134\n        /* \"#utility.yul\":1707:1712   */\n      dup3\n        /* \"#utility.yul\":1674:1713   */\n      tag_74\n      jump\t// in\n    tag_134:\n        /* \"#utility.yul\":1729:1800   */\n      tag_135\n        /* \"#utility.yul\":1793:1799   */\n      dup2\n        /* \"#utility.yul\":1788:1791   */\n      dup6\n        /* \"#utility.yul\":1729:1800   */\n      tag_75\n      jump\t// in\n    tag_135:\n        /* \"#utility.yul\":1722:1800   */\n      swap4\n      pop\n        /* \"#utility.yul\":1809:1874   */\n      tag_136\n        /* \"#utility.yul\":1867:1873   */\n      dup2\n        /* \"#utility.yul\":1862:1865   */\n      dup6\n        /* \"#utility.yul\":1855:1859   */\n      0x20\n        /* \"#utility.yul\":1848:1853   */\n      dup7\n        /* \"#utility.yul\":1844:1860   */\n      add\n        /* \"#utility.yul\":1809:1874   */\n      tag_76\n      jump\t// in\n    tag_136:\n        /* \"#utility.yul\":1899:1928   */\n      tag_137\n        /* \"#utility.yul\":1921:1927   */\n      dup2\n        /* \"#utility.yul\":1899:1928   */\n      tag_77\n      jump\t// in\n    tag_137:\n        /* \"#utility.yul\":1894:1897   */\n      dup5\n        /* \"#utility.yul\":1890:1929   */\n      add\n        /* \"#utility.yul\":1883:1929   */\n      swap2\n      pop\n        /* \"#utility.yul\":1650:1935   */\n      pop\n        /* \"#utility.yul\":1558:1935   */\n      swap3\n      swap2\n      pop\n      pop\n      jump\t// out\n        /* \"#utility.yul\":1941:2031   */\n    tag_79:\n        /* \"#utility.yul\":1975:1982   */\n      0x00\n        /* \"#utility.yul\":2018:2023   */\n      dup2\n        /* \"#utility.yul\":2011:2024   */\n      iszero\n        /* \"#utility.yul\":2004:2025   */\n      iszero\n        /* \"#utility.yul\":1993:2025   */\n      swap1\n      pop\n        /* \"#utility.yul\":1941:2031   */\n      swap2\n      swap1\n      pop\n      jump\t// out\n        /* \"#utility.yul\":2037:2146   */\n    tag_80:\n        /* \"#utility.yul\":2118:2139   */\n      tag_140\n        /* \"#utility.yul\":2133:2138   */\n      dup2\n        /* \"#utility.yul\":2118:2139   */\n      tag_79\n      jump\t// in\n    tag_140:\n        /* \"#utility.yul\":2113:2116   */\n      dup3\n        /* \"#utility.yul\":2106:2140   */\n      mstore\n        /* \"#utility.yul\":2037:2146   */\n      pop\n      pop\n      jump\t// out\n        /* \"#utility.yul\":2152:2966   */\n    tag_16:\n        /* \"#utility.yul\":2383:2387   */\n      0x00\n        /* \"#utility.yul\":2421:2424   */\n      0x80\n        /* \"#utility.yul\":2410:2419   */\n      dup3\n        /* \"#utility.yul\":2406:2425   */\n      add\n        /* \"#utility.yul\":2398:2425   */\n      swap1\n      pop\n        /* \"#utility.yul\":2471:2480   */\n      dup2\n        /* \"#utility.yul\":2465:2469   */\n      dup2\n        /* \"#utility.yul\":2461:2481   */\n      sub\n        /* \"#utility.yul\":2457:2458   */\n      0x00\n        /* \"#utility.yul\":2446:2455   */\n      dup4\n        /* \"#utility.yul\":2442:2459   */\n      add\n        /* \"#utility.yul\":2435:2482   */\n      mstore\n        /* \"#utility.yul\":2499:2577   */\n      tag_142\n        /* \"#utility.yul\":2572:2576   */\n      dup2\n        /* \"#utility.yul\":2563:2569   */\n      dup8\n        /* \"#utility.yul\":2499:2577   */\n      tag_78\n      jump\t// in\n    tag_142:\n        /* \"#utility.yul\":2491:2577   */\n      swap1\n      pop\n        /* \"#utility.yul\":2624:2633   */\n      dup2\n        /* \"#utility.yul\":2618:2622   */\n      dup2\n        /* \"#utility.yul\":2614:2634   */\n      sub\n        /* \"#utility.yul\":2609:2611   */\n      0x20\n        /* \"#utility.yul\":2598:2607   */\n      dup4\n        /* \"#utility.yul\":2594:2612   */\n      add\n        /* \"#utility.yul\":2587:2635   */\n      mstore\n        /* \"#utility.yul\":2652:2730   */\n      tag_143\n        /* \"#utility.yul\":2725:2729   */\n      dup2\n        /* \"#utility.yul\":2716:2722   */\n      dup7\n        /* \"#utility.yul\":2652:2730   */\n      tag_78\n      jump\t// in\n    tag_143:\n        /* \"#utility.yul\":2644:2730   */\n      swap1\n      pop\n        /* \"#utility.yul\":2777:2786   */\n      dup2\n        /* \"#utility.yul\":2771:2775   */\n      dup2\n        /* \"#utility.yul\":2767:2787   */\n      sub\n        /* \"#utility.yul\":2762:2764   */\n      0x40\n        /* \"#utility.yul\":2751:2760   */\n      dup4\n        /* \"#utility.yul\":2747:2765   */\n      add\n        /* \"#utility.yul\":2740:2788   */\n      mstore\n        /* \"#utility.yul\":2805:2883   */\n      tag_144\n        /* \"#utility.yul\":2878:2882   */\n      dup2\n        /* \"#utility.yul\":2869:2875   */\n      dup6\n        /* \"#utility.yul\":2805:2883   */\n      tag_78\n      jump\t// in\n    tag_144:\n        /* \"#utility.yul\":2797:2883   */\n      swap1\n      pop\n        /* \"#utility.yul\":2893:2959   */\n      tag_145\n        /* \"#utility.yul\":2955:2957   */\n      0x60\n        /* \"#utility.yul\":2944:2953   */\n      dup4\n        /* \"#utility.yul\":2940:2958   */\n      add\n        /* \"#utility.yul\":2931:2937   */\n      dup5\n        /* \"#utility.yul\":2893:2959   */\n      tag_80\n      jump\t// in\n    tag_145:\n        /* \"#utility.yul\":2152:2966   */\n      swap6\n      swap5\n      pop\n      pop\n      pop\n      pop\n      pop\n      jump\t// out\n        /* \"#utility.yul\":2972:3089   */\n    tag_81:\n        /* \"#utility.yul\":3081:3082   */\n      0x00\n        /* \"#utility.yul\":3078:3079   */\n      dup1\n        /* \"#utility.yul\":3071:3083   */\n      revert\n        /* \"#utility.yul\":3095:3212   */\n    tag_82:\n        /* \"#utility.yul\":3204:3205   */\n      0x00\n        /* \"#utility.yul\":3201:3202   */\n      dup1\n        /* \"#utility.yul\":3194:3206   */\n      revert\n        /* \"#utility.yul\":3218:3398   */\n    tag_83:\n        /* \"#utility.yul\":3266:3343   */\n      0x4e487b7100000000000000000000000000000000000000000000000000000000\n        /* \"#utility.yul\":3263:3264   */\n      0x00\n        /* \"#utility.yul\":3256:3344   */\n      mstore\n        /* \"#utility.yul\":3363:3367   */\n      0x41\n        /* \"#utility.yul\":3360:3361   */\n      0x04\n        /* \"#utility.yul\":3353:3368   */\n      mstore\n        /* \"#utility.yul\":3387:3391   */\n      0x24\n        /* \"#utility.yul\":3384:3385   */\n      0x00\n        /* \"#utility.yul\":3377:3392   */\n      revert\n        /* \"#utility.yul\":3404:3685   */\n    tag_84:\n        /* \"#utility.yul\":3487:3514   */\n      tag_150\n        /* \"#utility.yul\":3509:3513   */\n      dup3\n        /* \"#utility.yul\":3487:3514   */\n      tag_77\n      jump\t// in\n    tag_150:\n        /* \"#utility.yul\":3479:3485   */\n      dup2\n        /* \"#utility.yul\":3475:3515   */\n      add\n        /* \"#utility.yul\":3617:3623   */\n      dup2\n        /* \"#utility.yul\":3605:3615   */\n      dup2\n        /* \"#utility.yul\":3602:3624   */\n      lt\n        /* \"#utility.yul\":3581:3599   */\n      0xffffffffffffffff\n        /* \"#utility.yul\":3569:3579   */\n      dup3\n        /* \"#utility.yul\":3566:3600   */\n      gt\n        /* \"#utility.yul\":3563:3625   */\n      or\n        /* \"#utility.yul\":3560:3648   */\n      iszero\n      tag_151\n      jumpi\n        /* \"#utility.yul\":3628:3646   */\n      tag_152\n      tag_83\n      jump\t// in\n    tag_152:\n        /* \"#utility.yul\":3560:3648   */\n    tag_151:\n        /* \"#utility.yul\":3668:3678   */\n      dup1\n        /* \"#utility.yul\":3664:3666   */\n      0x40\n        /* \"#utility.yul\":3657:3679   */\n      mstore\n        /* \"#utility.yul\":3447:3685   */\n      pop\n        /* \"#utility.yul\":3404:3685   */\n      pop\n      pop\n      jump\t// out\n        /* \"#utility.yul\":3691:3820   */\n    tag_85:\n        /* \"#utility.yul\":3725:3731   */\n      0x00\n        /* \"#utility.yul\":3752:3772   */\n      tag_154\n      tag_68\n      jump\t// in\n    tag_154:\n        /* \"#utility.yul\":3742:3772   */\n      swap1\n      pop\n        /* \"#utility.yul\":3781:3814   */\n      tag_155\n        /* \"#utility.yul\":3809:3813   */\n      dup3\n        /* \"#utility.yul\":3801:3807   */\n      dup3\n        /* \"#utility.yul\":3781:3814   */\n      tag_84\n      jump\t// in\n    tag_155:\n        /* \"#utility.yul\":3691:3820   */\n      swap2\n      swap1\n      pop\n      jump\t// out\n        /* \"#utility.yul\":3826:4134   */\n    tag_86:\n        /* \"#utility.yul\":3888:3892   */\n      0x00\n        /* \"#utility.yul\":3978:3996   */\n      0xffffffffffffffff\n        /* \"#utility.yul\":3970:3976   */\n      dup3\n        /* \"#utility.yul\":3967:3997   */\n      gt\n        /* \"#utility.yul\":3964:4020   */\n      iszero\n      tag_157\n      jumpi\n        /* \"#utility.yul\":4000:4018   */\n      tag_158\n      tag_83\n      jump\t// in\n    tag_158:\n        /* \"#utility.yul\":3964:4020   */\n    tag_157:\n        /* \"#utility.yul\":4038:4067   */\n      tag_159\n        /* \"#utility.yul\":4060:4066   */\n      dup3\n        /* \"#utility.yul\":4038:4067   */\n      tag_77\n      jump\t// in\n    tag_159:\n        /* \"#utility.yul\":4030:4067   */\n      swap1\n      pop\n        /* \"#utility.yul\":4122:4126   */\n      0x20\n        /* \"#utility.yul\":4116:4120   */\n      dup2\n        /* \"#utility.yul\":4112:4127   */\n      add\n        /* \"#utility.yul\":4104:4127   */\n      swap1\n      pop\n        /* \"#utility.yul\":3826:4134   */\n      swap2\n      swap1\n      pop\n      jump\t// out\n        /* \"#utility.yul\":4140:4288   */\n    tag_87:\n        /* \"#utility.yul\":4238:4244   */\n      dup3\n        /* \"#utility.yul\":4233:4236   */\n      dup2\n        /* \"#utility.yul\":4228:4231   */\n      dup4\n        /* \"#utility.yul\":4215:4245   */\n      calldatacopy\n        /* \"#utility.yul\":4279:4280   */\n      0x00\n        /* \"#utility.yul\":4270:4276   */\n      dup4\n        /* \"#utility.yul\":4265:4268   */\n      dup4\n        /* \"#utility.yul\":4261:4277   */\n      add\n        /* \"#utility.yul\":4254:4281   */\n      mstore\n        /* \"#utility.yul\":4140:4288   */\n      pop\n      pop\n      pop\n      jump\t// out\n        /* \"#utility.yul\":4294:4719   */\n    tag_88:\n        /* \"#utility.yul\":4372:4377   */\n      0x00\n        /* \"#utility.yul\":4397:4463   */\n      tag_162\n        /* \"#utility.yul\":4413:4462   */\n      tag_163\n        /* \"#utility.yul\":4455:4461   */\n      dup5\n        /* \"#utility.yul\":4413:4462   */\n      tag_86\n      jump\t// in\n    tag_163:\n        /* \"#utility.yul\":4397:4463   */\n      tag_85\n      jump\t// in\n    tag_162:\n        /* \"#utility.yul\":4388:4463   */\n      swap1\n      pop\n        /* \"#utility.yul\":4486:4492   */\n      dup3\n        /* \"#utility.yul\":4479:4484   */\n      dup2\n        /* \"#utility.yul\":4472:4493   */\n      mstore\n        /* \"#utility.yul\":4524:4528   */\n      0x20\n        /* \"#utility.yul\":4517:4522   */\n      dup2\n        /* \"#utility.yul\":4513:4529   */\n      add\n        /* \"#utility.yul\":4562:4565   */\n      dup5\n        /* \"#utility.yul\":4553:4559   */\n      dup5\n        /* \"#utility.yul\":4548:4551   */\n      dup5\n        /* \"#utility.yul\":4544:4560   */\n      add\n        /* \"#utility.yul\":4541:4566   */\n      gt\n        /* \"#utility.yul\":4538:4650   */\n      iszero\n      tag_164\n      jumpi\n        /* \"#utility.yul\":4569:4648   */\n      tag_165\n      tag_82\n      jump\t// in\n    tag_165:\n        /* \"#utility.yul\":4538:4650   */\n    tag_164:\n        /* \"#utility.yul\":4659:4713   */\n      tag_166\n        /* \"#utility.yul\":4706:4712   */\n      dup5\n        /* \"#utility.yul\":4701:4704   */\n      dup3\n        /* \"#utility.yul\":4696:4699   */\n      dup6\n        /* \"#utility.yul\":4659:4713   */\n      tag_87\n      jump\t// in\n    tag_166:\n        /* \"#utility.yul\":4378:4719   */\n      pop\n        /* \"#utility.yul\":4294:4719   */\n      swap4\n      swap3\n      pop\n      pop\n      pop\n      jump\t// out\n        /* \"#utility.yul\":4739:5079   */\n    tag_89:\n        /* \"#utility.yul\":4795:4800   */\n      0x00\n        /* \"#utility.yul\":4844:4847   */\n      dup3\n        /* \"#utility.yul\":4837:4841   */\n      0x1f\n        /* \"#utility.yul\":4829:4835   */\n      dup4\n        /* \"#utility.yul\":4825:4842   */\n      add\n        /* \"#utility.yul\":4821:4848   */\n      slt\n        /* \"#utility.yul\":4811:4933   */\n      tag_168\n      jumpi\n        /* \"#utility.yul\":4852:4931   */\n      tag_169\n      tag_81\n      jump\t// in\n    tag_169:\n        /* \"#utility.yul\":4811:4933   */\n    tag_168:\n        /* \"#utility.yul\":4969:4975   */\n      dup2\n        /* \"#utility.yul\":4956:4976   */\n      calldataload\n        /* \"#utility.yul\":4994:5073   */\n      tag_170\n        /* \"#utility.yul\":5069:5072   */\n      dup5\n        /* \"#utility.yul\":5061:5067   */\n      dup3\n        /* \"#utility.yul\":5054:5058   */\n      0x20\n        /* \"#utility.yul\":5046:5052   */\n      dup7\n        /* \"#utility.yul\":5042:5059   */\n      add\n        /* \"#utility.yul\":4994:5073   */\n      tag_88\n      jump\t// in\n    tag_170:\n        /* \"#utility.yul\":4985:5073   */\n      swap2\n      pop\n        /* \"#utility.yul\":4801:5079   */\n      pop\n        /* \"#utility.yul\":4739:5079   */\n      swap3\n      swap2\n      pop\n      pop\n      jump\t// out\n        /* \"#utility.yul\":5085:6390   */\n    tag_19:\n        /* \"#utility.yul\":5201:5207   */\n      0x00\n        /* \"#utility.yul\":5209:5215   */\n      dup1\n        /* \"#utility.yul\":5217:5223   */\n      0x00\n        /* \"#utility.yul\":5225:5231   */\n      dup1\n        /* \"#utility.yul\":5274:5277   */\n      0x80\n        /* \"#utility.yul\":5262:5271   */\n      dup6\n        /* \"#utility.yul\":5253:5260   */\n      dup8\n        /* \"#utility.yul\":5249:5272   */\n      sub\n        /* \"#utility.yul\":5245:5278   */\n      slt\n        /* \"#utility.yul\":5242:5362   */\n      iszero\n      tag_172\n      jumpi\n        /* \"#utility.yul\":5281:5360   */\n      tag_173\n      tag_69\n      jump\t// in\n    tag_173:\n        /* \"#utility.yul\":5242:5362   */\n    tag_172:\n        /* \"#utility.yul\":5401:5402   */\n      0x00\n        /* \"#utility.yul\":5426:5479   */\n      tag_174\n        /* \"#utility.yul\":5471:5478   */\n      dup8\n        /* \"#utility.yul\":5462:5468   */\n      dup3\n        /* \"#utility.yul\":5451:5460   */\n      dup9\n        /* \"#utility.yul\":5447:5469   */\n      add\n        /* \"#utility.yul\":5426:5479   */\n      tag_73\n      jump\t// in\n    tag_174:\n        /* \"#utility.yul\":5416:5479   */\n      swap5\n      pop\n        /* \"#utility.yul\":5372:5489   */\n      pop\n        /* \"#utility.yul\":5556:5558   */\n      0x20\n        /* \"#utility.yul\":5545:5554   */\n      dup6\n        /* \"#utility.yul\":5541:5559   */\n      add\n        /* \"#utility.yul\":5528:5560   */\n      calldataload\n        /* \"#utility.yul\":5587:5605   */\n      0xffffffffffffffff\n        /* \"#utility.yul\":5579:5585   */\n      dup2\n        /* \"#utility.yul\":5576:5606   */\n      gt\n        /* \"#utility.yul\":5573:5690   */\n      iszero\n      tag_175\n      jumpi\n        /* \"#utility.yul\":5609:5688   */\n      tag_176\n      tag_70\n      jump\t// in\n    tag_176:\n        /* \"#utility.yul\":5573:5690   */\n    tag_175:\n        /* \"#utility.yul\":5714:5777   */\n      tag_177\n        /* \"#utility.yul\":5769:5776   */\n      dup8\n        /* \"#utility.yul\":5760:5766   */\n      dup3\n        /* \"#utility.yul\":5749:5758   */\n      dup9\n        /* \"#utility.yul\":5745:5767   */\n      add\n        /* \"#utility.yul\":5714:5777   */\n      tag_89\n      jump\t// in\n    tag_177:\n        /* \"#utility.yul\":5704:5777   */\n      swap4\n      pop\n        /* \"#utility.yul\":5499:5787   */\n      pop\n        /* \"#utility.yul\":5854:5856   */\n      0x40\n        /* \"#utility.yul\":5843:5852   */\n      dup6\n        /* \"#utility.yul\":5839:5857   */\n      add\n        /* \"#utility.yul\":5826:5858   */\n      calldataload\n        /* \"#utility.yul\":5885:5903   */\n      0xffffffffffffffff\n        /* \"#utility.yul\":5877:5883   */\n      dup2\n        /* \"#utility.yul\":5874:5904   */\n      gt\n        /* \"#utility.yul\":5871:5988   */\n      iszero\n      tag_178\n      jumpi\n        /* \"#utility.yul\":5907:5986   */\n      tag_179\n      tag_70\n      jump\t// in\n    tag_179:\n        /* \"#utility.yul\":5871:5988   */\n    tag_178:\n        /* \"#utility.yul\":6012:6075   */\n      tag_180\n        /* \"#utility.yul\":6067:6074   */\n      dup8\n        /* \"#utility.yul\":6058:6064   */\n      dup3\n        /* \"#utility.yul\":6047:6056   */\n      dup9\n        /* \"#utility.yul\":6043:6065   */\n      add\n        /* \"#utility.yul\":6012:6075   */\n      tag_89\n      jump\t// in\n    tag_180:\n        /* \"#utility.yul\":6002:6075   */\n      swap3\n      pop\n        /* \"#utility.yul\":5797:6085   */\n      pop\n        /* \"#utility.yul\":6152:6154   */\n      0x60\n        /* \"#utility.yul\":6141:6150   */\n      dup6\n        /* \"#utility.yul\":6137:6155   */\n      add\n        /* \"#utility.yul\":6124:6156   */\n      calldataload\n        /* \"#utility.yul\":6183:6201   */\n      0xffffffffffffffff\n        /* \"#utility.yul\":6175:6181   */\n      dup2\n        /* \"#utility.yul\":6172:6202   */\n      gt\n        /* \"#utility.yul\":6169:6286   */\n      iszero\n      tag_181\n      jumpi\n        /* \"#utility.yul\":6205:6284   */\n      tag_182\n      tag_70\n      jump\t// in\n    tag_182:\n        /* \"#utility.yul\":6169:6286   */\n    tag_181:\n        /* \"#utility.yul\":6310:6373   */\n      tag_183\n        /* \"#utility.yul\":6365:6372   */\n      dup8\n        /* \"#utility.yul\":6356:6362   */\n      dup3\n        /* \"#utility.yul\":6345:6354   */\n      dup9\n        /* \"#utility.yul\":6341:6363   */\n      add\n        /* \"#utility.yul\":6310:6373   */\n      tag_89\n      jump\t// in\n    tag_183:\n        /* \"#utility.yul\":6300:6373   */\n      swap2\n      pop\n        /* \"#utility.yul\":6095:6383   */\n      pop\n        /* \"#utility.yul\":5085:6390   */\n      swap3\n      swap6\n      swap2\n      swap5\n      pop\n      swap3\n      pop\n      jump\t// out\n        /* \"#utility.yul\":6396:6522   */\n    tag_90:\n        /* \"#utility.yul\":6433:6440   */\n      0x00\n        /* \"#utility.yul\":6473:6515   */\n      0xffffffffffffffffffffffffffffffffffffffff\n        /* \"#utility.yul\":6466:6471   */\n      dup3\n        /* \"#utility.yul\":6462:6516   */\n      and\n        /* \"#utility.yul\":6451:6516   */\n      swap1\n      pop\n        /* \"#utility.yul\":6396:6522   */\n      swap2\n      swap1\n      pop\n      jump\t// out\n        /* \"#utility.yul\":6528:6624   */\n    tag_91:\n        /* \"#utility.yul\":6565:6572   */\n      0x00\n        /* \"#utility.yul\":6594:6618   */\n      tag_186\n        /* \"#utility.yul\":6612:6617   */\n      dup3\n        /* \"#utility.yul\":6594:6618   */\n      tag_90\n      jump\t// in\n    tag_186:\n        /* \"#utility.yul\":6583:6618   */\n      swap1\n      pop\n        /* \"#utility.yul\":6528:6624   */\n      swap2\n      swap1\n      pop\n      jump\t// out\n        /* \"#utility.yul\":6630:6748   */\n    tag_92:\n        /* \"#utility.yul\":6717:6741   */\n      tag_188\n        /* \"#utility.yul\":6735:6740   */\n      dup2\n        /* \"#utility.yul\":6717:6741   */\n      tag_91\n      jump\t// in\n    tag_188:\n        /* \"#utility.yul\":6712:6715   */\n      dup3\n        /* \"#utility.yul\":6705:6742   */\n      mstore\n        /* \"#utility.yul\":6630:6748   */\n      pop\n      pop\n      jump\t// out\n        /* \"#utility.yul\":6754:6976   */\n    tag_24:\n        /* \"#utility.yul\":6847:6851   */\n      0x00\n        /* \"#utility.yul\":6885:6887   */\n      0x20\n        /* \"#utility.yul\":6874:6883   */\n      dup3\n        /* \"#utility.yul\":6870:6888   */\n      add\n        /* \"#utility.yul\":6862:6888   */\n      swap1\n      pop\n        /* \"#utility.yul\":6898:6969   */\n      tag_190\n        /* \"#utility.yul\":6966:6967   */\n      0x00\n        /* \"#utility.yul\":6955:6964   */\n      dup4\n        /* \"#utility.yul\":6951:6968   */\n      add\n        /* \"#utility.yul\":6942:6948   */\n      dup5\n        /* \"#utility.yul\":6898:6969   */\n      tag_92\n      jump\t// in\n    tag_190:\n        /* \"#utility.yul\":6754:6976   */\n      swap3\n      swap2\n      pop\n      pop\n      jump\t// out\n        /* \"#utility.yul\":6982:7192   */\n    tag_29:\n        /* \"#utility.yul\":7069:7073   */\n      0x00\n        /* \"#utility.yul\":7107:7109   */\n      0x20\n        /* \"#utility.yul\":7096:7105   */\n      dup3\n        /* \"#utility.yul\":7092:7110   */\n      add\n        /* \"#utility.yul\":7084:7110   */\n      swap1\n      pop\n        /* \"#utility.yul\":7120:7185   */\n      tag_192\n        /* \"#utility.yul\":7182:7183   */\n      0x00\n        /* \"#utility.yul\":7171:7180   */\n      dup4\n        /* \"#utility.yul\":7167:7184   */\n      add\n        /* \"#utility.yul\":7158:7164   */\n      dup5\n        /* \"#utility.yul\":7120:7185   */\n      tag_80\n      jump\t// in\n    tag_192:\n        /* \"#utility.yul\":6982:7192   */\n      swap3\n      swap2\n      pop\n      pop\n      jump\t// out\n        /* \"#utility.yul\":7198:7424   */\n    tag_93:\n        /* \"#utility.yul\":7338:7372   */\n      0x4f6e6c7920746865206f776e65722063616e2065786563757465207468697320\n        /* \"#utility.yul\":7334:7335   */\n      0x00\n        /* \"#utility.yul\":7326:7332   */\n      dup3\n        /* \"#utility.yul\":7322:7336   */\n      add\n        /* \"#utility.yul\":7315:7373   */\n      mstore\n        /* \"#utility.yul\":7407:7416   */\n      0x616374696f6e2e00000000000000000000000000000000000000000000000000\n        /* \"#utility.yul\":7402:7404   */\n      0x20\n        /* \"#utility.yul\":7394:7400   */\n      dup3\n        /* \"#utility.yul\":7390:7405   */\n      add\n        /* \"#utility.yul\":7383:7417   */\n      mstore\n        /* \"#utility.yul\":7198:7424   */\n      pop\n      jump\t// out\n        /* \"#utility.yul\":7430:7796   */\n    tag_94:\n        /* \"#utility.yul\":7572:7575   */\n      0x00\n        /* \"#utility.yul\":7593:7660   */\n      tag_195\n        /* \"#utility.yul\":7657:7659   */\n      0x27\n        /* \"#utility.yul\":7652:7655   */\n      dup4\n        /* \"#utility.yul\":7593:7660   */\n      tag_75\n      jump\t// in\n    tag_195:\n        /* \"#utility.yul\":7586:7660   */\n      swap2\n      pop\n        /* \"#utility.yul\":7669:7762   */\n      tag_196\n        /* \"#utility.yul\":7758:7761   */\n      dup3\n        /* \"#utility.yul\":7669:7762   */\n      tag_93\n      jump\t// in\n    tag_196:\n        /* \"#utility.yul\":7787:7789   */\n      0x40\n        /* \"#utility.yul\":7782:7785   */\n      dup3\n        /* \"#utility.yul\":7778:7790   */\n      add\n        /* \"#utility.yul\":7771:7790   */\n      swap1\n      pop\n        /* \"#utility.yul\":7430:7796   */\n      swap2\n      swap1\n      pop\n      jump\t// out\n        /* \"#utility.yul\":7802:8221   */\n    tag_33:\n        /* \"#utility.yul\":7968:7972   */\n      0x00\n        /* \"#utility.yul\":8006:8008   */\n      0x20\n        /* \"#utility.yul\":7995:8004   */\n      dup3\n        /* \"#utility.yul\":7991:8009   */\n      add\n        /* \"#utility.yul\":7983:8009   */\n      swap1\n      pop\n        /* \"#utility.yul\":8055:8064   */\n      dup2\n        /* \"#utility.yul\":8049:8053   */\n      dup2\n        /* \"#utility.yul\":8045:8065   */\n      sub\n        /* \"#utility.yul\":8041:8042   */\n      0x00\n        /* \"#utility.yul\":8030:8039   */\n      dup4\n        /* \"#utility.yul\":8026:8043   */\n      add\n        /* \"#utility.yul\":8019:8066   */\n      mstore\n        /* \"#utility.yul\":8083:8214   */\n      tag_198\n        /* \"#utility.yul\":8209:8213   */\n      dup2\n        /* \"#utility.yul\":8083:8214   */\n      tag_94\n      jump\t// in\n    tag_198:\n        /* \"#utility.yul\":8075:8214   */\n      swap1\n      pop\n        /* \"#utility.yul\":7802:8221   */\n      swap2\n      swap1\n      pop\n      jump\t// out\n        /* \"#utility.yul\":8227:8457   */\n    tag_95:\n        /* \"#utility.yul\":8367:8401   */\n      0x436572746966696361746520646f65736e277420666f756e64206f7220646f65\n        /* \"#utility.yul\":8363:8364   */\n      0x00\n        /* \"#utility.yul\":8355:8361   */\n      dup3\n        /* \"#utility.yul\":8351:8365   */\n      add\n        /* \"#utility.yul\":8344:8402   */\n      mstore\n        /* \"#utility.yul\":8436:8449   */\n      0x736e27742065786973742e000000000000000000000000000000000000000000\n        /* \"#utility.yul\":8431:8433   */\n      0x20\n        /* \"#utility.yul\":8423:8429   */\n      dup3\n        /* \"#utility.yul\":8419:8434   */\n      add\n        /* \"#utility.yul\":8412:8450   */\n      mstore\n        /* \"#utility.yul\":8227:8457   */\n      pop\n      jump\t// out\n        /* \"#utility.yul\":8463:8829   */\n    tag_96:\n        /* \"#utility.yul\":8605:8608   */\n      0x00\n        /* \"#utility.yul\":8626:8693   */\n      tag_201\n        /* \"#utility.yul\":8690:8692   */\n      0x2b\n        /* \"#utility.yul\":8685:8688   */\n      dup4\n        /* \"#utility.yul\":8626:8693   */\n      tag_75\n      jump\t// in\n    tag_201:\n        /* \"#utility.yul\":8619:8693   */\n      swap2\n      pop\n        /* \"#utility.yul\":8702:8795   */\n      tag_202\n        /* \"#utility.yul\":8791:8794   */\n      dup3\n        /* \"#utility.yul\":8702:8795   */\n      tag_95\n      jump\t// in\n    tag_202:\n        /* \"#utility.yul\":8820:8822   */\n      0x40\n        /* \"#utility.yul\":8815:8818   */\n      dup3\n        /* \"#utility.yul\":8811:8823   */\n      add\n        /* \"#utility.yul\":8804:8823   */\n      swap1\n      pop\n        /* \"#utility.yul\":8463:8829   */\n      swap2\n      swap1\n      pop\n      jump\t// out\n        /* \"#utility.yul\":8835:9254   */\n    tag_37:\n        /* \"#utility.yul\":9001:9005   */\n      0x00\n        /* \"#utility.yul\":9039:9041   */\n      0x20\n        /* \"#utility.yul\":9028:9037   */\n      dup3\n        /* \"#utility.yul\":9024:9042   */\n      add\n        /* \"#utility.yul\":9016:9042   */\n      swap1\n      pop\n        /* \"#utility.yul\":9088:9097   */\n      dup2\n        /* \"#utility.yul\":9082:9086   */\n      dup2\n        /* \"#utility.yul\":9078:9098   */\n      sub\n        /* \"#utility.yul\":9074:9075   */\n      0x00\n        /* \"#utility.yul\":9063:9072   */\n      dup4\n        /* \"#utility.yul\":9059:9076   */\n      add\n        /* \"#utility.yul\":9052:9099   */\n      mstore\n        /* \"#utility.yul\":9116:9247   */\n      tag_204\n        /* \"#utility.yul\":9242:9246   */\n      dup2\n        /* \"#utility.yul\":9116:9247   */\n      tag_96\n      jump\t// in\n    tag_204:\n        /* \"#utility.yul\":9108:9247   */\n      swap1\n      pop\n        /* \"#utility.yul\":8835:9254   */\n      swap2\n      swap1\n      pop\n      jump\t// out\n        /* \"#utility.yul\":9260:9440   */\n    tag_97:\n        /* \"#utility.yul\":9308:9385   */\n      0x4e487b7100000000000000000000000000000000000000000000000000000000\n        /* \"#utility.yul\":9305:9306   */\n      0x00\n        /* \"#utility.yul\":9298:9386   */\n      mstore\n        /* \"#utility.yul\":9405:9409   */\n      0x22\n        /* \"#utility.yul\":9402:9403   */\n      0x04\n        /* \"#utility.yul\":9395:9410   */\n      mstore\n        /* \"#utility.yul\":9429:9433   */\n      0x24\n        /* \"#utility.yul\":9426:9427   */\n      0x00\n        /* \"#utility.yul\":9419:9434   */\n      revert\n        /* \"#utility.yul\":9446:9766   */\n    tag_39:\n        /* \"#utility.yul\":9490:9496   */\n      0x00\n        /* \"#utility.yul\":9527:9528   */\n      0x02\n        /* \"#utility.yul\":9521:9525   */\n      dup3\n        /* \"#utility.yul\":9517:9529   */\n      div\n        /* \"#utility.yul\":9507:9529   */\n      swap1\n      pop\n        /* \"#utility.yul\":9574:9575   */\n      0x01\n        /* \"#utility.yul\":9568:9572   */\n      dup3\n        /* \"#utility.yul\":9564:9576   */\n      and\n        /* \"#utility.yul\":9595:9613   */\n      dup1\n        /* \"#utility.yul\":9585:9666   */\n      tag_207\n      jumpi\n        /* \"#utility.yul\":9651:9655   */\n      0x7f\n        /* \"#utility.yul\":9643:9649   */\n      dup3\n        /* \"#utility.yul\":9639:9656   */\n      and\n        /* \"#utility.yul\":9629:9656   */\n      swap2\n      pop\n        /* \"#utility.yul\":9585:9666   */\n    tag_207:\n        /* \"#utility.yul\":9713:9715   */\n      0x20\n        /* \"#utility.yul\":9705:9711   */\n      dup3\n        /* \"#utility.yul\":9702:9716   */\n      lt\n        /* \"#utility.yul\":9682:9700   */\n      dup2\n        /* \"#utility.yul\":9679:9717   */\n      sub\n        /* \"#utility.yul\":9676:9760   */\n      tag_208\n      jumpi\n        /* \"#utility.yul\":9732:9750   */\n      tag_209\n      tag_97\n      jump\t// in\n    tag_209:\n        /* \"#utility.yul\":9676:9760   */\n    tag_208:\n        /* \"#utility.yul\":9497:9766   */\n      pop\n        /* \"#utility.yul\":9446:9766   */\n      swap2\n      swap1\n      pop\n      jump\t// out\n        /* \"#utility.yul\":9772:10011   */\n    tag_98:\n        /* \"#utility.yul\":9912:9946   */\n      0x4365727469666963617465207769746820746869732049442063657274696669\n        /* \"#utility.yul\":9908:9909   */\n      0x00\n        /* \"#utility.yul\":9900:9906   */\n      dup3\n        /* \"#utility.yul\":9896:9910   */\n      add\n        /* \"#utility.yul\":9889:9947   */\n      mstore\n        /* \"#utility.yul\":9981:10003   */\n      0x6361746520616c7265616479206578697374732e000000000000000000000000\n        /* \"#utility.yul\":9976:9978   */\n      0x20\n        /* \"#utility.yul\":9968:9974   */\n      dup3\n        /* \"#utility.yul\":9964:9979   */\n      add\n        /* \"#utility.yul\":9957:10004   */\n      mstore\n        /* \"#utility.yul\":9772:10011   */\n      pop\n      jump\t// out\n        /* \"#utility.yul\":10017:10383   */\n    tag_99:\n        /* \"#utility.yul\":10159:10162   */\n      0x00\n        /* \"#utility.yul\":10180:10247   */\n      tag_212\n        /* \"#utility.yul\":10244:10246   */\n      0x34\n        /* \"#utility.yul\":10239:10242   */\n      dup4\n        /* \"#utility.yul\":10180:10247   */\n      tag_75\n      jump\t// in\n    tag_212:\n        /* \"#utility.yul\":10173:10247   */\n      swap2\n      pop\n        /* \"#utility.yul\":10256:10349   */\n      tag_213\n        /* \"#utility.yul\":10345:10348   */\n      dup3\n        /* \"#utility.yul\":10256:10349   */\n      tag_98\n      jump\t// in\n    tag_213:\n        /* \"#utility.yul\":10374:10376   */\n      0x40\n        /* \"#utility.yul\":10369:10372   */\n      dup3\n        /* \"#utility.yul\":10365:10377   */\n      add\n        /* \"#utility.yul\":10358:10377   */\n      swap1\n      pop\n        /* \"#utility.yul\":10017:10383   */\n      swap2\n      swap1\n      pop\n      jump\t// out\n        /* \"#utility.yul\":10389:10808   */\n    tag_60:\n        /* \"#utility.yul\":10555:10559   */\n      0x00\n        /* \"#utility.yul\":10593:10595   */\n      0x20\n        /* \"#utility.yul\":10582:10591   */\n      dup3\n        /* \"#utility.yul\":10578:10596   */\n      add\n        /* \"#utility.yul\":10570:10596   */\n      swap1\n      pop\n        /* \"#utility.yul\":10642:10651   */\n      dup2\n        /* \"#utility.yul\":10636:10640   */\n      dup2\n        /* \"#utility.yul\":10632:10652   */\n      sub\n        /* \"#utility.yul\":10628:10629   */\n      0x00\n        /* \"#utility.yul\":10617:10626   */\n      dup4\n        /* \"#utility.yul\":10613:10630   */\n      add\n        /* \"#utility.yul\":10606:10653   */\n      mstore\n        /* \"#utility.yul\":10670:10801   */\n      tag_215\n        /* \"#utility.yul\":10796:10800   */\n      dup2\n        /* \"#utility.yul\":10670:10801   */\n      tag_99\n      jump\t// in\n    tag_215:\n        /* \"#utility.yul\":10662:10801   */\n      swap1\n      pop\n        /* \"#utility.yul\":10389:10808   */\n      swap2\n      swap1\n      pop\n      jump\t// out\n        /* \"#utility.yul\":10814:10955   */\n    tag_100:\n        /* \"#utility.yul\":10863:10867   */\n      0x00\n        /* \"#utility.yul\":10886:10889   */\n      dup2\n        /* \"#utility.yul\":10878:10889   */\n      swap1\n      pop\n        /* \"#utility.yul\":10909:10912   */\n      dup2\n        /* \"#utility.yul\":10906:10907   */\n      0x00\n        /* \"#utility.yul\":10899:10913   */\n      mstore\n        /* \"#utility.yul\":10943:10947   */\n      0x20\n        /* \"#utility.yul\":10940:10941   */\n      0x00\n        /* \"#utility.yul\":10930:10948   */\n      keccak256\n        /* \"#utility.yul\":10922:10948   */\n      swap1\n      pop\n        /* \"#utility.yul\":10814:10955   */\n      swap2\n      swap1\n      pop\n      jump\t// out\n        /* \"#utility.yul\":10961:11054   */\n    tag_101:\n        /* \"#utility.yul\":10998:11004   */\n      0x00\n        /* \"#utility.yul\":11045:11047   */\n      0x20\n        /* \"#utility.yul\":11040:11042   */\n      0x1f\n        /* \"#utility.yul\":11033:11038   */\n      dup4\n        /* \"#utility.yul\":11029:11043   */\n      add\n        /* \"#utility.yul\":11025:11048   */\n      div\n        /* \"#utility.yul\":11015:11048   */\n      swap1\n      pop\n        /* \"#utility.yul\":10961:11054   */\n      swap2\n      swap1\n      pop\n      jump\t// out\n        /* \"#utility.yul\":11060:11167   */\n    tag_102:\n        /* \"#utility.yul\":11104:11112   */\n      0x00\n        /* \"#utility.yul\":11154:11159   */\n      dup3\n        /* \"#utility.yul\":11148:11152   */\n      dup3\n        /* \"#utility.yul\":11144:11160   */\n      shl\n        /* \"#utility.yul\":11123:11160   */\n      swap1\n      pop\n        /* \"#utility.yul\":11060:11167   */\n      swap3\n      swap2\n      pop\n      pop\n      jump\t// out\n        /* \"#utility.yul\":11173:11566   */\n    tag_103:\n        /* \"#utility.yul\":11242:11248   */\n      0x00\n        /* \"#utility.yul\":11292:11293   */\n      0x08\n        /* \"#utility.yul\":11280:11290   */\n      dup4\n        /* \"#utility.yul\":11276:11294   */\n      mul\n        /* \"#utility.yul\":11315:11412   */\n      tag_220\n        /* \"#utility.yul\":11345:11411   */\n      0xffffffffffffffffffffffffffffffffffffffffffffffffffffffffffffffff\n        /* \"#utility.yul\":11334:11343   */\n      dup3\n        /* \"#utility.yul\":11315:11412   */\n      tag_102\n      jump\t// in\n    tag_220:\n        /* \"#utility.yul\":11433:11472   */\n      tag_221\n        /* \"#utility.yul\":11463:11471   */\n      dup7\n        /* \"#utility.yul\":11452:11461   */\n      dup4\n        /* \"#utility.yul\":11433:11472   */\n      tag_102\n      jump\t// in\n    tag_221:\n        /* \"#utility.yul\":11421:11472   */\n      swap6\n      pop\n        /* \"#utility.yul\":11505:11509   */\n      dup1\n        /* \"#utility.yul\":11501:11510   */\n      not\n        /* \"#utility.yul\":11494:11499   */\n      dup5\n        /* \"#utility.yul\":11490:11511   */\n      and\n        /* \"#utility.yul\":11481:11511   */\n      swap4\n      pop\n        /* \"#utility.yul\":11554:11558   */\n      dup1\n        /* \"#utility.yul\":11544:11552   */\n      dup7\n        /* \"#utility.yul\":11540:11559   */\n      and\n        /* \"#utility.yul\":11533:11538   */\n      dup5\n        /* \"#utility.yul\":11530:11560   */\n      or\n        /* \"#utility.yul\":11520:11560   */\n      swap3\n      pop\n        /* \"#utility.yul\":11249:11566   */\n      pop\n      pop\n        /* \"#utility.yul\":11173:11566   */\n      swap4\n      swap3\n      pop\n      pop\n      pop\n      jump\t// out\n        /* \"#utility.yul\":11572:11632   */\n    tag_104:\n        /* \"#utility.yul\":11600:11603   */\n      0x00\n        /* \"#utility.yul\":11621:11626   */\n      dup2\n        /* \"#utility.yul\":11614:11626   */\n      swap1\n      pop\n        /* \"#utility.yul\":11572:11632   */\n      swap2\n      swap1\n      pop\n      jump\t// out\n        /* \"#utility.yul\":11638:11780   */\n    tag_105:\n        /* \"#utility.yul\":11688:11697   */\n      0x00\n        /* \"#utility.yul\":11721:11774   */\n      tag_224\n        /* \"#utility.yul\":11739:11773   */\n      tag_225\n        /* \"#utility.yul\":11748:11772   */\n      tag_226\n        /* \"#utility.yul\":11766:11771   */\n      dup5\n        /* \"#utility.yul\":11748:11772   */\n      tag_71\n      jump\t// in\n    tag_226:\n        /* \"#utility.yul\":11739:11773   */\n      tag_104\n      jump\t// in\n    tag_225:\n        /* \"#utility.yul\":11721:11774   */\n      tag_71\n      jump\t// in\n    tag_224:\n        /* \"#utility.yul\":11708:11774   */\n      swap1\n      pop\n        /* \"#utility.yul\":11638:11780   */\n      swap2\n      swap1\n      pop\n      jump\t// out\n        /* \"#utility.yul\":11786:11861   */\n    tag_106:\n        /* \"#utility.yul\":11829:11832   */\n      0x00\n        /* \"#utility.yul\":11850:11855   */\n      dup2\n        /* \"#utility.yul\":11843:11855   */\n      swap1\n      pop\n        /* \"#utility.yul\":11786:11861   */\n      swap2\n      swap1\n      pop\n      jump\t// out\n        /* \"#utility.yul\":11867:12136   */\n    tag_107:\n        /* \"#utility.yul\":11977:12016   */\n      tag_229\n        /* \"#utility.yul\":12008:12015   */\n      dup4\n        /* \"#utility.yul\":11977:12016   */\n      tag_105\n      jump\t// in\n    tag_229:\n        /* \"#utility.yul\":12038:12129   */\n      tag_230\n        /* \"#utility.yul\":12087:12128   */\n      tag_231\n        /* \"#utility.yul\":12111:12127   */\n      dup3\n        /* \"#utility.yul\":12087:12128   */\n      tag_106\n      jump\t// in\n    tag_231:\n        /* \"#utility.yul\":12079:12085   */\n      dup5\n        /* \"#utility.yul\":12072:12076   */\n      dup5\n        /* \"#utility.yul\":12066:12077   */\n      sload\n        /* \"#utility.yul\":12038:12129   */\n      tag_103\n      jump\t// in\n    tag_230:\n        /* \"#utility.yul\":12032:12036   */\n      dup3\n        /* \"#utility.yul\":12025:12130   */\n      sstore\n        /* \"#utility.yul\":11943:12136   */\n      pop\n        /* \"#utility.yul\":11867:12136   */\n      pop\n      pop\n      pop\n      jump\t// out\n        /* \"#utility.yul\":12142:12215   */\n    tag_108:\n        /* \"#utility.yul\":12187:12190   */\n      0x00\n        /* \"#utility.yul\":12142:12215   */\n      swap1\n      jump\t// out\n        /* \"#utility.yul\":12221:12410   */\n    tag_109:\n        /* \"#utility.yul\":12298:12330   */\n      tag_234\n      tag_108\n      jump\t// in\n    tag_234:\n        /* \"#utility.yul\":12339:12404   */\n      tag_235\n        /* \"#utility.yul\":12397:12403   */\n      dup2\n        /* \"#utility.yul\":12389:12395   */\n      dup5\n        /* \"#utility.yul\":12383:12387   */\n      dup5\n        /* \"#utility.yul\":12339:12404   */\n      tag_107\n      jump\t// in\n    tag_235:\n        /* \"#utility.yul\":12274:12410   */\n      pop\n        /* \"#utility.yul\":12221:12410   */\n      pop\n      pop\n      jump\t// out\n        /* \"#utility.yul\":12416:12602   */\n    tag_110:\n        /* \"#utility.yul\":12476:12596   */\n    tag_237:\n        /* \"#utility.yul\":12493:12496   */\n      dup2\n        /* \"#utility.yul\":12486:12491   */\n      dup2\n        /* \"#utility.yul\":12483:12497   */\n      lt\n        /* \"#utility.yul\":12476:12596   */\n      iszero\n      tag_239\n      jumpi\n        /* \"#utility.yul\":12547:12586   */\n      tag_240\n        /* \"#utility.yul\":12584:12585   */\n      0x00\n        /* \"#utility.yul\":12577:12582   */\n      dup3\n        /* \"#utility.yul\":12547:12586   */\n      tag_109\n      jump\t// in\n    tag_240:\n        /* \"#utility.yul\":12520:12521   */\n      0x01\n        /* \"#utility.yul\":12513:12518   */\n      dup2\n        /* \"#utility.yul\":12509:12522   */\n      add\n        /* \"#utility.yul\":12500:12522   */\n      swap1\n      pop\n        /* \"#utility.yul\":12476:12596   */\n      jump(tag_237)\n    tag_239:\n        /* \"#utility.yul\":12416:12602   */\n      pop\n      pop\n      jump\t// out\n        /* \"#utility.yul\":12608:13151   */\n    tag_111:\n        /* \"#utility.yul\":12709:12711   */\n      0x1f\n        /* \"#utility.yul\":12704:12707   */\n      dup3\n        /* \"#utility.yul\":12701:12712   */\n      gt\n        /* \"#utility.yul\":12698:13144   */\n      iszero\n      tag_242\n      jumpi\n        /* \"#utility.yul\":12743:12781   */\n      tag_243\n        /* \"#utility.yul\":12775:12780   */\n      dup2\n        /* \"#utility.yul\":12743:12781   */\n      tag_100\n      jump\t// in\n    tag_243:\n        /* \"#utility.yul\":12827:12856   */\n      tag_244\n        /* \"#utility.yul\":12845:12855   */\n      dup5\n        /* \"#utility.yul\":12827:12856   */\n      tag_101\n      jump\t// in\n    tag_244:\n        /* \"#utility.yul\":12817:12825   */\n      dup2\n        /* \"#utility.yul\":12813:12857   */\n      add\n        /* \"#utility.yul\":13010:13012   */\n      0x20\n        /* \"#utility.yul\":12998:13008   */\n      dup6\n        /* \"#utility.yul\":12995:13013   */\n      lt\n        /* \"#utility.yul\":12992:13041   */\n      iszero\n      tag_245\n      jumpi\n        /* \"#utility.yul\":13031:13039   */\n      dup2\n        /* \"#utility.yul\":13016:13039   */\n      swap1\n      pop\n        /* \"#utility.yul\":12992:13041   */\n    tag_245:\n        /* \"#utility.yul\":13054:13134   */\n      tag_246\n        /* \"#utility.yul\":13110:13132   */\n      tag_247\n        /* \"#utility.yul\":13128:13131   */\n      dup6\n        /* \"#utility.yul\":13110:13132   */\n      tag_101\n      jump\t// in\n    tag_247:\n        /* \"#utility.yul\":13100:13108   */\n      dup4\n        /* \"#utility.yul\":13096:13133   */\n      add\n        /* \"#utility.yul\":13083:13094   */\n      dup3\n        /* \"#utility.yul\":13054:13134   */\n      tag_110\n      jump\t// in\n    tag_246:\n        /* \"#utility.yul\":12713:13144   */\n      pop\n      pop\n        /* \"#utility.yul\":12698:13144   */\n    tag_242:\n        /* \"#utility.yul\":12608:13151   */\n      pop\n      pop\n      pop\n      jump\t// out\n        /* \"#utility.yul\":13157:13274   */\n    tag_112:\n        /* \"#utility.yul\":13211:13219   */\n      0x00\n        /* \"#utility.yul\":13261:13266   */\n      dup3\n        /* \"#utility.yul\":13255:13259   */\n      dup3\n        /* \"#utility.yul\":13251:13267   */\n      shr\n        /* \"#utility.yul\":13230:13267   */\n      swap1\n      pop\n        /* \"#utility.yul\":13157:13274   */\n      swap3\n      swap2\n      pop\n      pop\n      jump\t// out\n        /* \"#utility.yul\":13280:13449   */\n    tag_113:\n        /* \"#utility.yul\":13324:13330   */\n      0x00\n        /* \"#utility.yul\":13357:13408   */\n      tag_250\n        /* \"#utility.yul\":13405:13406   */\n      0x00\n        /* \"#utility.yul\":13401:13407   */\n      not\n        /* \"#utility.yul\":13393:13398   */\n      dup5\n        /* \"#utility.yul\":13390:13391   */\n      0x08\n        /* \"#utility.yul\":13386:13399   */\n      mul\n        /* \"#utility.yul\":13357:13408   */\n      tag_112\n      jump\t// in\n    tag_250:\n        /* \"#utility.yul\":13353:13409   */\n      not\n        /* \"#utility.yul\":13438:13442   */\n      dup1\n        /* \"#utility.yul\":13432:13436   */\n      dup4\n        /* \"#utility.yul\":13428:13443   */\n      and\n        /* \"#utility.yul\":13418:13443   */\n      swap2\n      pop\n        /* \"#utility.yul\":13331:13449   */\n      pop\n        /* \"#utility.yul\":13280:13449   */\n      swap3\n      swap2\n      pop\n      pop\n      jump\t// out\n        /* \"#utility.yul\":13454:13749   */\n    tag_114:\n        /* \"#utility.yul\":13530:13534   */\n      0x00\n        /* \"#utility.yul\":13676:13705   */\n      tag_252\n        /* \"#utility.yul\":13701:13704   */\n      dup4\n        /* \"#utility.yul\":13695:13699   */\n      dup4\n        /* \"#utility.yul\":13676:13705   */\n      tag_113\n      jump\t// in\n    tag_252:\n        /* \"#utility.yul\":13668:13705   */\n      swap2\n      pop\n        /* \"#utility.yul\":13738:13741   */\n      dup3\n        /* \"#utility.yul\":13735:13736   */\n      0x02\n        /* \"#utility.yul\":13731:13742   */\n      mul\n        /* \"#utility.yul\":13725:13729   */\n      dup3\n        /* \"#utility.yul\":13722:13743   */\n      or\n        /* \"#utility.yul\":13714:13743   */\n      swap1\n      pop\n        /* \"#utility.yul\":13454:13749   */\n      swap3\n      swap2\n      pop\n      pop\n      jump\t// out\n        /* \"#utility.yul\":13754:15149   */\n    tag_62:\n        /* \"#utility.yul\":13871:13908   */\n      tag_254\n        /* \"#utility.yul\":13904:13907   */\n      dup3\n        /* \"#utility.yul\":13871:13908   */\n      tag_74\n      jump\t// in\n    tag_254:\n        /* \"#utility.yul\":13973:13991   */\n      0xffffffffffffffff\n        /* \"#utility.yul\":13965:13971   */\n      dup2\n        /* \"#utility.yul\":13962:13992   */\n      gt\n        /* \"#utility.yul\":13959:14015   */\n      iszero\n      tag_255\n      jumpi\n        /* \"#utility.yul\":13995:14013   */\n      tag_256\n      tag_83\n      jump\t// in\n    tag_256:\n        /* \"#utility.yul\":13959:14015   */\n    tag_255:\n        /* \"#utility.yul\":14039:14077   */\n      tag_257\n        /* \"#utility.yul\":14071:14075   */\n      dup3\n        /* \"#utility.yul\":14065:14076   */\n      sload\n        /* \"#utility.yul\":14039:14077   */\n      tag_39\n      jump\t// in\n    tag_257:\n        /* \"#utility.yul\":14124:14191   */\n      tag_258\n        /* \"#utility.yul\":14184:14190   */\n      dup3\n        /* \"#utility.yul\":14176:14182   */\n      dup3\n        /* \"#utility.yul\":14170:14174   */\n      dup6\n        /* \"#utility.yul\":14124:14191   */\n      tag_111\n      jump\t// in\n    tag_258:\n        /* \"#utility.yul\":14218:14219   */\n      0x00\n        /* \"#utility.yul\":14242:14246   */\n      0x20\n        /* \"#utility.yul\":14229:14246   */\n      swap1\n      pop\n        /* \"#utility.yul\":14274:14276   */\n      0x1f\n        /* \"#utility.yul\":14266:14272   */\n      dup4\n        /* \"#utility.yul\":14263:14277   */\n      gt\n        /* \"#utility.yul\":14291:14292   */\n      0x01\n        /* \"#utility.yul\":14286:14904   */\n      dup2\n      eq\n      tag_260\n      jumpi\n        /* \"#utility.yul\":14948:14949   */\n      0x00\n        /* \"#utility.yul\":14965:14971   */\n      dup5\n        /* \"#utility.yul\":14962:15039   */\n      iszero\n      tag_261\n      jumpi\n        /* \"#utility.yul\":15014:15023   */\n      dup3\n        /* \"#utility.yul\":15009:15012   */\n      dup8\n        /* \"#utility.yul\":15005:15024   */\n      add\n        /* \"#utility.yul\":14999:15025   */\n      mload\n        /* \"#utility.yul\":14990:15025   */\n      swap1\n      pop\n        /* \"#utility.yul\":14962:15039   */\n    tag_261:\n        /* \"#utility.yul\":15065:15132   */\n      tag_262\n        /* \"#utility.yul\":15125:15131   */\n      dup6\n        /* \"#utility.yul\":15118:15123   */\n      dup3\n        /* \"#utility.yul\":15065:15132   */\n      tag_114\n      jump\t// in\n    tag_262:\n        /* \"#utility.yul\":15059:15063   */\n      dup7\n        /* \"#utility.yul\":15052:15133   */\n      sstore\n        /* \"#utility.yul\":14921:15143   */\n      pop\n        /* \"#utility.yul\":14256:15143   */\n      jump(tag_259)\n        /* \"#utility.yul\":14286:14904   */\n    tag_260:\n        /* \"#utility.yul\":14338:14342   */\n      0x1f\n        /* \"#utility.yul\":14334:14343   */\n      not\n        /* \"#utility.yul\":14326:14332   */\n      dup5\n        /* \"#utility.yul\":14322:14344   */\n      and\n        /* \"#utility.yul\":14372:14409   */\n      tag_263\n        /* \"#utility.yul\":14404:14408   */\n      dup7\n        /* \"#utility.yul\":14372:14409   */\n      tag_100\n      jump\t// in\n    tag_263:\n        /* \"#utility.yul\":14431:14432   */\n      0x00\n        /* \"#utility.yul\":14445:14653   */\n    tag_264:\n        /* \"#utility.yul\":14459:14466   */\n      dup3\n        /* \"#utility.yul\":14456:14457   */\n      dup2\n        /* \"#utility.yul\":14453:14467   */\n      lt\n        /* \"#utility.yul\":14445:14653   */\n      iszero\n      tag_266\n      jumpi\n        /* \"#utility.yul\":14538:14547   */\n      dup5\n        /* \"#utility.yul\":14533:14536   */\n      dup10\n        /* \"#utility.yul\":14529:14548   */\n      add\n        /* \"#utility.yul\":14523:14549   */\n      mload\n        /* \"#utility.yul\":14515:14521   */\n      dup3\n        /* \"#utility.yul\":14508:14550   */\n      sstore\n        /* \"#utility.yul\":14589:14590   */\n      0x01\n        /* \"#utility.yul\":14581:14587   */\n      dup3\n        /* \"#utility.yul\":14577:14591   */\n      add\n        /* \"#utility.yul\":14567:14591   */\n      swap2\n      pop\n        /* \"#utility.yul\":14636:14638   */\n      0x20\n        /* \"#utility.yul\":14625:14634   */\n      dup6\n        /* \"#utility.yul\":14621:14639   */\n      add\n        /* \"#utility.yul\":14608:14639   */\n      swap5\n      pop\n        /* \"#utility.yul\":14482:14486   */\n      0x20\n        /* \"#utility.yul\":14479:14480   */\n      dup2\n        /* \"#utility.yul\":14475:14487   */\n      add\n        /* \"#utility.yul\":14470:14487   */\n      swap1\n      pop\n        /* \"#utility.yul\":14445:14653   */\n      jump(tag_264)\n    tag_266:\n        /* \"#utility.yul\":14681:14687   */\n      dup7\n        /* \"#utility.yul\":14672:14679   */\n      dup4\n        /* \"#utility.yul\":14669:14688   */\n      lt\n        /* \"#utility.yul\":14666:14845   */\n      iszero\n      tag_267\n      jumpi\n        /* \"#utility.yul\":14739:14748   */\n      dup5\n        /* \"#utility.yul\":14734:14737   */\n      dup10\n        /* \"#utility.yul\":14730:14749   */\n      add\n        /* \"#utility.yul\":14724:14750   */\n      mload\n        /* \"#utility.yul\":14782:14830   */\n      tag_268\n        /* \"#utility.yul\":14824:14828   */\n      0x1f\n        /* \"#utility.yul\":14816:14822   */\n      dup10\n        /* \"#utility.yul\":14812:14829   */\n      and\n        /* \"#utility.yul\":14801:14810   */\n      dup3\n        /* \"#utility.yul\":14782:14830   */\n      tag_113\n      jump\t// in\n    tag_268:\n        /* \"#utility.yul\":14774:14780   */\n      dup4\n        /* \"#utility.yul\":14767:14831   */\n      sstore\n        /* \"#utility.yul\":14689:14845   */\n      pop\n        /* \"#utility.yul\":14666:14845   */\n    tag_267:\n        /* \"#utility.yul\":14891:14892   */\n      0x01\n        /* \"#utility.yul\":14887:14888   */\n      0x02\n        /* \"#utility.yul\":14879:14885   */\n      dup9\n        /* \"#utility.yul\":14875:14889   */\n      mul\n        /* \"#utility.yul\":14871:14893   */\n      add\n        /* \"#utility.yul\":14865:14869   */\n      dup9\n        /* \"#utility.yul\":14858:14894   */\n      sstore\n        /* \"#utility.yul\":14293:14904   */\n      pop\n      pop\n      pop\n        /* \"#utility.yul\":14256:15143   */\n    tag_259:\n      pop\n        /* \"#utility.yul\":13846:15149   */\n      pop\n      pop\n      pop\n        /* \"#utility.yul\":13754:15149   */\n      pop\n      pop\n      jump\t// out\n        /* \"#utility.yul\":15155:15669   */\n    tag_66:\n        /* \"#utility.yul\":15316:15320   */\n      0x00\n        /* \"#utility.yul\":15354:15356   */\n      0x40\n        /* \"#utility.yul\":15343:15352   */\n      dup3\n        /* \"#utility.yul\":15339:15357   */\n      add\n        /* \"#utility.yul\":15331:15357   */\n      swap1\n      pop\n        /* \"#utility.yul\":15403:15412   */\n      dup2\n        /* \"#utility.yul\":15397:15401   */\n      dup2\n        /* \"#utility.yul\":15393:15413   */\n      sub\n        /* \"#utility.yul\":15389:15390   */\n      0x00\n        /* \"#utility.yul\":15378:15387   */\n      dup4\n        /* \"#utility.yul\":15374:15391   */\n      add\n        /* \"#utility.yul\":15367:15414   */\n      mstore\n        /* \"#utility.yul\":15431:15509   */\n      tag_270\n        /* \"#utility.yul\":15504:15508   */\n      dup2\n        /* \"#utility.yul\":15495:15501   */\n      dup6\n        /* \"#utility.yul\":15431:15509   */\n      tag_78\n      jump\t// in\n    tag_270:\n        /* \"#utility.yul\":15423:15509   */\n      swap1\n      pop\n        /* \"#utility.yul\":15556:15565   */\n      dup2\n        /* \"#utility.yul\":15550:15554   */\n      dup2\n        /* \"#utility.yul\":15546:15566   */\n      sub\n        /* \"#utility.yul\":15541:15543   */\n      0x20\n        /* \"#utility.yul\":15530:15539   */\n      dup4\n        /* \"#utility.yul\":15526:15544   */\n      add\n        /* \"#utility.yul\":15519:15567   */\n      mstore\n        /* \"#utility.yul\":15584:15662   */\n      tag_271\n        /* \"#utility.yul\":15657:15661   */\n      dup2\n        /* \"#utility.yul\":15648:15654   */\n      dup5\n        /* \"#utility.yul\":15584:15662   */\n      tag_78\n      jump\t// in\n    tag_271:\n        /* \"#utility.yul\":15576:15662   */\n      swap1\n      pop\n        /* \"#utility.yul\":15155:15669   */\n      swap4\n      swap3\n      pop\n      pop\n      pop\n      jump\t// out\n\n    auxdata: 0xa2646970667358221220478cf2f6ba73922875cdedfb2131698359832755a695aa6769b933d8198e6da864736f6c634300081a0033\n}\n",
				"bytecode": {
					"linkReferences": {},
					"object": "6080604052348015600e575f80fd5b50335f806101000a81548173ffffffffffffffffffffffffffffffffffffffff021916908373ffffffffffffffffffffffffffffffffffffffff160217905550610e8c8061005b5f395ff3fe608060405234801561000f575f80fd5b5060043610610055575f3560e01c806306f5497e14610059578063663b3e22146100755780637cd44c23146100a85780638da5cb5b146100c4578063a5ce413a146100e2575b5f80fd5b610073600480360381019061006e919061064c565b610112565b005b61008f600480360381019061008a919061064c565b61022d565b60405161009f9493929190610701565b60405180910390f35b6100c260048036038101906100bd9190610885565b6103f7565b005b6100cc6105bc565b6040516100d9919061097c565b60405180910390f35b6100fc60048036038101906100f7919061064c565b6105df565b6040516101099190610995565b60405180910390f35b5f8054906101000a900473ffffffffffffffffffffffffffffffffffffffff1673ffffffffffffffffffffffffffffffffffffffff163373ffffffffffffffffffffffffffffffffffffffff161461019f576040517f08c379a000000000000000000000000000000000000000000000000000000000815260040161019690610a1e565b60405180910390fd5b60015f8281526020019081526020015f206003015f9054906101000a900460ff166101ff576040517f08c379a00000000000000000000000000000000000000000000000000000000081526004016101f690610aac565b60405180910390fd5b5f60015f8381526020019081526020015f206003015f6101000a81548160ff02191690831515021790555050565b6001602052805f5260405f205f91509050805f01805461024c90610af7565b80601f016020809104026020016040519081016040528092919081815260200182805461027890610af7565b80156102c35780601f1061029a576101008083540402835291602001916102c3565b820191905f5260205f20905b8154815290600101906020018083116102a657829003601f168201915b5050505050908060010180546102d890610af7565b80601f016020809104026020016040519081016040528092919081815260200182805461030490610af7565b801561034f5780601f106103265761010080835404028352916020019161034f565b820191905f5260205f20905b81548152906001019060200180831161033257829003601f168201915b50505050509080600201805461036490610af7565b80601f016020809104026020016040519081016040528092919081815260200182805461039090610af7565b80156103db5780601f106103b2576101008083540402835291602001916103db565b820191905f5260205f20905b8154815290600101906020018083116103be57829003601f168201915b505050505090806003015f9054906101000a900460ff16905084565b5f8054906101000a900473ffffffffffffffffffffffffffffffffffffffff1673ffffffffffffffffffffffffffffffffffffffff163373ffffffffffffffffffffffffffffffffffffffff1614610484576040517f08c379a000000000000000000000000000000000000000000000000000000000815260040161047b90610a1e565b60405180910390fd5b60015f8581526020019081526020015f206003015f9054906101000a900460ff16156104e5576040517f08c379a00000000000000000000000000000000000000000000000000000000081526004016104dc90610b97565b60405180910390fd5b60405180608001604052808481526020018381526020018281526020016001151581525060015f8681526020019081526020015f205f820151815f01908161052d9190610d52565b5060208201518160010190816105439190610d52565b5060408201518160020190816105599190610d52565b506060820151816003015f6101000a81548160ff021916908315150217905550905050837f55e235e38225040825e04ea5d7545c53f47415b5543ec6bf898aa3a96742d5f984846040516105ae929190610e21565b60405180910390a250505050565b5f8054906101000a900473ffffffffffffffffffffffffffffffffffffffff1681565b5f60015f8381526020019081526020015f206003015f9054906101000a900460ff169050919050565b5f604051905090565b5f80fd5b5f80fd5b5f819050919050565b61062b81610619565b8114610635575f80fd5b50565b5f8135905061064681610622565b92915050565b5f6020828403121561066157610660610611565b5b5f61066e84828501610638565b91505092915050565b5f81519050919050565b5f82825260208201905092915050565b8281835e5f83830152505050565b5f601f19601f8301169050919050565b5f6106b982610677565b6106c38185610681565b93506106d3818560208601610691565b6106dc8161069f565b840191505092915050565b5f8115159050919050565b6106fb816106e7565b82525050565b5f6080820190508181035f83015261071981876106af565b9050818103602083015261072d81866106af565b9050818103604083015261074181856106af565b905061075060608301846106f2565b95945050505050565b5f80fd5b5f80fd5b7f4e487b71000000000000000000000000000000000000000000000000000000005f52604160045260245ffd5b6107978261069f565b810181811067ffffffffffffffff821117156107b6576107b5610761565b5b80604052505050565b5f6107c8610608565b90506107d4828261078e565b919050565b5f67ffffffffffffffff8211156107f3576107f2610761565b5b6107fc8261069f565b9050602081019050919050565b828183375f83830152505050565b5f610829610824846107d9565b6107bf565b9050828152602081018484840111156108455761084461075d565b5b610850848285610809565b509392505050565b5f82601f83011261086c5761086b610759565b5b813561087c848260208601610817565b91505092915050565b5f805f806080858703121561089d5761089c610611565b5b5f6108aa87828801610638565b945050602085013567ffffffffffffffff8111156108cb576108ca610615565b5b6108d787828801610858565b935050604085013567ffffffffffffffff8111156108f8576108f7610615565b5b61090487828801610858565b925050606085013567ffffffffffffffff81111561092557610924610615565b5b61093187828801610858565b91505092959194509250565b5f73ffffffffffffffffffffffffffffffffffffffff82169050919050565b5f6109668261093d565b9050919050565b6109768161095c565b82525050565b5f60208201905061098f5f83018461096d565b92915050565b5f6020820190506109a85f8301846106f2565b92915050565b7f4f6e6c7920746865206f776e65722063616e20657865637574652074686973205f8201527f616374696f6e2e00000000000000000000000000000000000000000000000000602082015250565b5f610a08602783610681565b9150610a13826109ae565b604082019050919050565b5f6020820190508181035f830152610a35816109fc565b9050919050565b7f436572746966696361746520646f65736e277420666f756e64206f7220646f655f8201527f736e27742065786973742e000000000000000000000000000000000000000000602082015250565b5f610a96602b83610681565b9150610aa182610a3c565b604082019050919050565b5f6020820190508181035f830152610ac381610a8a565b9050919050565b7f4e487b71000000000000000000000000000000000000000000000000000000005f52602260045260245ffd5b5f6002820490506001821680610b0e57607f821691505b602082108103610b2157610b20610aca565b5b50919050565b7f43657274696669636174652077697468207468697320494420636572746966695f8201527f6361746520616c7265616479206578697374732e000000000000000000000000602082015250565b5f610b81603483610681565b9150610b8c82610b27565b604082019050919050565b5f6020820190508181035f830152610bae81610b75565b9050919050565b5f819050815f5260205f209050919050565b5f6020601f8301049050919050565b5f82821b905092915050565b5f60088302610c117fffffffffffffffffffffffffffffffffffffffffffffffffffffffffffffffff82610bd6565b610c1b8683610bd6565b95508019841693508086168417925050509392505050565b5f819050919050565b5f610c56610c51610c4c84610619565b610c33565b610619565b9050919050565b5f819050919050565b610c6f83610c3c565b610c83610c7b82610c5d565b848454610be2565b825550505050565b5f90565b610c97610c8b565b610ca2818484610c66565b505050565b5b81811015610cc557610cba5f82610c8f565b600181019050610ca8565b5050565b601f821115610d0a57610cdb81610bb5565b610ce484610bc7565b81016020851015610cf3578190505b610d07610cff85610bc7565b830182610ca7565b50505b505050565b5f82821c905092915050565b5f610d2a5f1984600802610d0f565b1980831691505092915050565b5f610d428383610d1b565b9150826002028217905092915050565b610d5b82610677565b67ffffffffffffffff811115610d7457610d73610761565b5b610d7e8254610af7565b610d89828285610cc9565b5f60209050601f831160018114610dba575f8415610da8578287015190505b610db28582610d37565b865550610e19565b601f198416610dc886610bb5565b5f5b82811015610def57848901518255600182019150602085019450602081019050610dca565b86831015610e0c5784890151610e08601f891682610d1b565b8355505b6001600288020188555050505b505050505050565b5f6040820190508181035f830152610e3981856106af565b90508181036020830152610e4d81846106af565b9050939250505056fea2646970667358221220478cf2f6ba73922875cdedfb2131698359832755a695aa6769b933d8198e6da864736f6c634300081a0033",
					"opcodes": "PUSH1 0x80 PUSH1 0x40 MSTORE CALLVALUE DUP1 ISZERO PUSH1 0xE JUMPI PUSH0 DUP1 REVERT JUMPDEST POP CALLER PUSH0 DUP1 PUSH2 0x100 EXP DUP2 SLOAD DUP2 PUSH20 0xFFFFFFFFFFFFFFFFFFFFFFFFFFFFFFFFFFFFFFFF MUL NOT AND SWAP1 DUP4 PUSH20 0xFFFFFFFFFFFFFFFFFFFFFFFFFFFFFFFFFFFFFFFF AND MUL OR SWAP1 SSTORE POP PUSH2 0xE8C DUP1 PUSH2 0x5B PUSH0 CODECOPY PUSH0 RETURN INVALID PUSH1 0x80 PUSH1 0x40 MSTORE CALLVALUE DUP1 ISZERO PUSH2 0xF JUMPI PUSH0 DUP1 REVERT JUMPDEST POP PUSH1 0x4 CALLDATASIZE LT PUSH2 0x55 JUMPI PUSH0 CALLDATALOAD PUSH1 0xE0 SHR DUP1 PUSH4 0x6F5497E EQ PUSH2 0x59 JUMPI DUP1 PUSH4 0x663B3E22 EQ PUSH2 0x75 JUMPI DUP1 PUSH4 0x7CD44C23 EQ PUSH2 0xA8 JUMPI DUP1 PUSH4 0x8DA5CB5B EQ PUSH2 0xC4 JUMPI DUP1 PUSH4 0xA5CE413A EQ PUSH2 0xE2 JUMPI JUMPDEST PUSH0 DUP1 REVERT JUMPDEST PUSH2 0x73 PUSH1 0x4 DUP1 CALLDATASIZE SUB DUP2 ADD SWAP1 PUSH2 0x6E SWAP2 SWAP1 PUSH2 0x64C JUMP JUMPDEST PUSH2 0x112 JUMP JUMPDEST STOP JUMPDEST PUSH2 0x8F PUSH1 0x4 DUP1 CALLDATASIZE SUB DUP2 ADD SWAP1 PUSH2 0x8A SWAP2 SWAP1 PUSH2 0x64C JUMP JUMPDEST PUSH2 0x22D JUMP JUMPDEST PUSH1 0x40 MLOAD PUSH2 0x9F SWAP5 SWAP4 SWAP3 SWAP2 SWAP1 PUSH2 0x701 JUMP JUMPDEST PUSH1 0x40 MLOAD DUP1 SWAP2 SUB SWAP1 RETURN JUMPDEST PUSH2 0xC2 PUSH1 0x4 DUP1 CALLDATASIZE SUB DUP2 ADD SWAP1 PUSH2 0xBD SWAP2 SWAP1 PUSH2 0x885 JUMP JUMPDEST PUSH2 0x3F7 JUMP JUMPDEST STOP JUMPDEST PUSH2 0xCC PUSH2 0x5BC JUMP JUMPDEST PUSH1 0x40 MLOAD PUSH2 0xD9 SWAP2 SWAP1 PUSH2 0x97C JUMP JUMPDEST PUSH1 0x40 MLOAD DUP1 SWAP2 SUB SWAP1 RETURN JUMPDEST PUSH2 0xFC PUSH1 0x4 DUP1 CALLDATASIZE SUB DUP2 ADD SWAP1 PUSH2 0xF7 SWAP2 SWAP1 PUSH2 0x64C JUMP JUMPDEST PUSH2 0x5DF JUMP JUMPDEST PUSH1 0x40 MLOAD PUSH2 0x109 SWAP2 SWAP1 PUSH2 0x995 JUMP JUMPDEST PUSH1 0x40 MLOAD DUP1 SWAP2 SUB SWAP1 RETURN JUMPDEST PUSH0 DUP1 SLOAD SWAP1 PUSH2 0x100 EXP SWAP1 DIV PUSH20 0xFFFFFFFFFFFFFFFFFFFFFFFFFFFFFFFFFFFFFFFF AND PUSH20 0xFFFFFFFFFFFFFFFFFFFFFFFFFFFFFFFFFFFFFFFF AND CALLER PUSH20 0xFFFFFFFFFFFFFFFFFFFFFFFFFFFFFFFFFFFFFFFF AND EQ PUSH2 0x19F JUMPI PUSH1 0x40 MLOAD PUSH32 0x8C379A000000000000000000000000000000000000000000000000000000000 DUP2 MSTORE PUSH1 0x4 ADD PUSH2 0x196 SWAP1 PUSH2 0xA1E JUMP JUMPDEST PUSH1 0x40 MLOAD DUP1 SWAP2 SUB SWAP1 REVERT JUMPDEST PUSH1 0x1 PUSH0 DUP3 DUP2 MSTORE PUSH1 0x20 ADD SWAP1 DUP2 MSTORE PUSH1 0x20 ADD PUSH0 KECCAK256 PUSH1 0x3 ADD PUSH0 SWAP1 SLOAD SWAP1 PUSH2 0x100 EXP SWAP1 DIV PUSH1 0xFF AND PUSH2 0x1FF JUMPI PUSH1 0x40 MLOAD PUSH32 0x8C379A000000000000000000000000000000000000000000000000000000000 DUP2 MSTORE PUSH1 0x4 ADD PUSH2 0x1F6 SWAP1 PUSH2 0xAAC JUMP JUMPDEST PUSH1 0x40 MLOAD DUP1 SWAP2 SUB SWAP1 REVERT JUMPDEST PUSH0 PUSH1 0x1 PUSH0 DUP4 DUP2 MSTORE PUSH1 0x20 ADD SWAP1 DUP2 MSTORE PUSH1 0x20 ADD PUSH0 KECCAK256 PUSH1 0x3 ADD PUSH0 PUSH2 0x100 EXP DUP2 SLOAD DUP2 PUSH1 0xFF MUL NOT AND SWAP1 DUP4 ISZERO ISZERO MUL OR SWAP1 SSTORE POP POP JUMP JUMPDEST PUSH1 0x1 PUSH1 0x20 MSTORE DUP1 PUSH0 MSTORE PUSH1 0x40 PUSH0 KECCAK256 PUSH0 SWAP2 POP SWAP1 POP DUP1 PUSH0 ADD DUP1 SLOAD PUSH2 0x24C SWAP1 PUSH2 0xAF7 JUMP JUMPDEST DUP1 PUSH1 0x1F ADD PUSH1 0x20 DUP1 SWAP2 DIV MUL PUSH1 0x20 ADD PUSH1 0x40 MLOAD SWAP1 DUP2 ADD PUSH1 0x40 MSTORE DUP1 SWAP3 SWAP2 SWAP1 DUP2 DUP2 MSTORE PUSH1 0x20 ADD DUP3 DUP1 SLOAD PUSH2 0x278 SWAP1 PUSH2 0xAF7 JUMP JUMPDEST DUP1 ISZERO PUSH2 0x2C3 JUMPI DUP1 PUSH1 0x1F LT PUSH2 0x29A JUMPI PUSH2 0x100 DUP1 DUP4 SLOAD DIV MUL DUP4 MSTORE SWAP2 PUSH1 0x20 ADD SWAP2 PUSH2 0x2C3 JUMP JUMPDEST DUP3 ADD SWAP2 SWAP1 PUSH0 MSTORE PUSH1 0x20 PUSH0 KECCAK256 SWAP1 JUMPDEST DUP2 SLOAD DUP2 MSTORE SWAP1 PUSH1 0x1 ADD SWAP1 PUSH1 0x20 ADD DUP1 DUP4 GT PUSH2 0x2A6 JUMPI DUP3 SWAP1 SUB PUSH1 0x1F AND DUP3 ADD SWAP2 JUMPDEST POP POP POP POP POP SWAP1 DUP1 PUSH1 0x1 ADD DUP1 SLOAD PUSH2 0x2D8 SWAP1 PUSH2 0xAF7 JUMP JUMPDEST DUP1 PUSH1 0x1F ADD PUSH1 0x20 DUP1 SWAP2 DIV MUL PUSH1 0x20 ADD PUSH1 0x40 MLOAD SWAP1 DUP2 ADD PUSH1 0x40 MSTORE DUP1 SWAP3 SWAP2 SWAP1 DUP2 DUP2 MSTORE PUSH1 0x20 ADD DUP3 DUP1 SLOAD PUSH2 0x304 SWAP1 PUSH2 0xAF7 JUMP JUMPDEST DUP1 ISZERO PUSH2 0x34F JUMPI DUP1 PUSH1 0x1F LT PUSH2 0x326 JUMPI PUSH2 0x100 DUP1 DUP4 SLOAD DIV MUL DUP4 MSTORE SWAP2 PUSH1 0x20 ADD SWAP2 PUSH2 0x34F JUMP JUMPDEST DUP3 ADD SWAP2 SWAP1 PUSH0 MSTORE PUSH1 0x20 PUSH0 KECCAK256 SWAP1 JUMPDEST DUP2 SLOAD DUP2 MSTORE SWAP1 PUSH1 0x1 ADD SWAP1 PUSH1 0x20 ADD DUP1 DUP4 GT PUSH2 0x332 JUMPI DUP3 SWAP1 SUB PUSH1 0x1F AND DUP3 ADD SWAP2 JUMPDEST POP POP POP POP POP SWAP1 DUP1 PUSH1 0x2 ADD DUP1 SLOAD PUSH2 0x364 SWAP1 PUSH2 0xAF7 JUMP JUMPDEST DUP1 PUSH1 0x1F ADD PUSH1 0x20 DUP1 SWAP2 DIV MUL PUSH1 0x20 ADD PUSH1 0x40 MLOAD SWAP1 DUP2 ADD PUSH1 0x40 MSTORE DUP1 SWAP3 SWAP2 SWAP1 DUP2 DUP2 MSTORE PUSH1 0x20 ADD DUP3 DUP1 SLOAD PUSH2 0x390 SWAP1 PUSH2 0xAF7 JUMP JUMPDEST DUP1 ISZERO PUSH2 0x3DB JUMPI DUP1 PUSH1 0x1F LT PUSH2 0x3B2 JUMPI PUSH2 0x100 DUP1 DUP4 SLOAD DIV MUL DUP4 MSTORE SWAP2 PUSH1 0x20 ADD SWAP2 PUSH2 0x3DB JUMP JUMPDEST DUP3 ADD SWAP2 SWAP1 PUSH0 MSTORE PUSH1 0x20 PUSH0 KECCAK256 SWAP1 JUMPDEST DUP2 SLOAD DUP2 MSTORE SWAP1 PUSH1 0x1 ADD SWAP1 PUSH1 0x20 ADD DUP1 DUP4 GT PUSH2 0x3BE JUMPI DUP3 SWAP1 SUB PUSH1 0x1F AND DUP3 ADD SWAP2 JUMPDEST POP POP POP POP POP SWAP1 DUP1 PUSH1 0x3 ADD PUSH0 SWAP1 SLOAD SWAP1 PUSH2 0x100 EXP SWAP1 DIV PUSH1 0xFF AND SWAP1 POP DUP5 JUMP JUMPDEST PUSH0 DUP1 SLOAD SWAP1 PUSH2 0x100 EXP SWAP1 DIV PUSH20 0xFFFFFFFFFFFFFFFFFFFFFFFFFFFFFFFFFFFFFFFF AND PUSH20 0xFFFFFFFFFFFFFFFFFFFFFFFFFFFFFFFFFFFFFFFF AND CALLER PUSH20 0xFFFFFFFFFFFFFFFFFFFFFFFFFFFFFFFFFFFFFFFF AND EQ PUSH2 0x484 JUMPI PUSH1 0x40 MLOAD PUSH32 0x8C379A000000000000000000000000000000000000000000000000000000000 DUP2 MSTORE PUSH1 0x4 ADD PUSH2 0x47B SWAP1 PUSH2 0xA1E JUMP JUMPDEST PUSH1 0x40 MLOAD DUP1 SWAP2 SUB SWAP1 REVERT JUMPDEST PUSH1 0x1 PUSH0 DUP6 DUP2 MSTORE PUSH1 0x20 ADD SWAP1 DUP2 MSTORE PUSH1 0x20 ADD PUSH0 KECCAK256 PUSH1 0x3 ADD PUSH0 SWAP1 SLOAD SWAP1 PUSH2 0x100 EXP SWAP1 DIV PUSH1 0xFF AND ISZERO PUSH2 0x4E5 JUMPI PUSH1 0x40 MLOAD PUSH32 0x8C379A000000000000000000000000000000000000000000000000000000000 DUP2 MSTORE PUSH1 0x4 ADD PUSH2 0x4DC SWAP1 PUSH2 0xB97 JUMP JUMPDEST PUSH1 0x40 MLOAD DUP1 SWAP2 SUB SWAP1 REVERT JUMPDEST PUSH1 0x40 MLOAD DUP1 PUSH1 0x80 ADD PUSH1 0x40 MSTORE DUP1 DUP5 DUP2 MSTORE PUSH1 0x20 ADD DUP4 DUP2 MSTORE PUSH1 0x20 ADD DUP3 DUP2 MSTORE PUSH1 0x20 ADD PUSH1 0x1 ISZERO ISZERO DUP2 MSTORE POP PUSH1 0x1 PUSH0 DUP7 DUP2 MSTORE PUSH1 0x20 ADD SWAP1 DUP2 MSTORE PUSH1 0x20 ADD PUSH0 KECCAK256 PUSH0 DUP3 ADD MLOAD DUP2 PUSH0 ADD SWAP1 DUP2 PUSH2 0x52D SWAP2 SWAP1 PUSH2 0xD52 JUMP JUMPDEST POP PUSH1 0x20 DUP3 ADD MLOAD DUP2 PUSH1 0x1 ADD SWAP1 DUP2 PUSH2 0x543 SWAP2 SWAP1 PUSH2 0xD52 JUMP JUMPDEST POP PUSH1 0x40 DUP3 ADD MLOAD DUP2 PUSH1 0x2 ADD SWAP1 DUP2 PUSH2 0x559 SWAP2 SWAP1 PUSH2 0xD52 JUMP JUMPDEST POP PUSH1 0x60 DUP3 ADD MLOAD DUP2 PUSH1 0x3 ADD PUSH0 PUSH2 0x100 EXP DUP2 SLOAD DUP2 PUSH1 0xFF MUL NOT AND SWAP1 DUP4 ISZERO ISZERO MUL OR SWAP1 SSTORE POP SWAP1 POP POP DUP4 PUSH32 0x55E235E38225040825E04EA5D7545C53F47415B5543EC6BF898AA3A96742D5F9 DUP5 DUP5 PUSH1 0x40 MLOAD PUSH2 0x5AE SWAP3 SWAP2 SWAP1 PUSH2 0xE21 JUMP JUMPDEST PUSH1 0x40 MLOAD DUP1 SWAP2 SUB SWAP1 LOG2 POP POP POP POP JUMP JUMPDEST PUSH0 DUP1 SLOAD SWAP1 PUSH2 0x100 EXP SWAP1 DIV PUSH20 0xFFFFFFFFFFFFFFFFFFFFFFFFFFFFFFFFFFFFFFFF AND DUP2 JUMP JUMPDEST PUSH0 PUSH1 0x1 PUSH0 DUP4 DUP2 MSTORE PUSH1 0x20 ADD SWAP1 DUP2 MSTORE PUSH1 0x20 ADD PUSH0 KECCAK256 PUSH1 0x3 ADD PUSH0 SWAP1 SLOAD SWAP1 PUSH2 0x100 EXP SWAP1 DIV PUSH1 0xFF AND SWAP1 POP SWAP2 SWAP1 POP JUMP JUMPDEST PUSH0 PUSH1 0x40 MLOAD SWAP1 POP SWAP1 JUMP JUMPDEST PUSH0 DUP1 REVERT JUMPDEST PUSH0 DUP1 REVERT JUMPDEST PUSH0 DUP2 SWAP1 POP SWAP2 SWAP1 POP JUMP JUMPDEST PUSH2 0x62B DUP2 PUSH2 0x619 JUMP JUMPDEST DUP2 EQ PUSH2 0x635 JUMPI PUSH0 DUP1 REVERT JUMPDEST POP JUMP JUMPDEST PUSH0 DUP2 CALLDATALOAD SWAP1 POP PUSH2 0x646 DUP2 PUSH2 0x622 JUMP JUMPDEST SWAP3 SWAP2 POP POP JUMP JUMPDEST PUSH0 PUSH1 0x20 DUP3 DUP5 SUB SLT ISZERO PUSH2 0x661 JUMPI PUSH2 0x660 PUSH2 0x611 JUMP JUMPDEST JUMPDEST PUSH0 PUSH2 0x66E DUP5 DUP3 DUP6 ADD PUSH2 0x638 JUMP JUMPDEST SWAP2 POP POP SWAP3 SWAP2 POP POP JUMP JUMPDEST PUSH0 DUP2 MLOAD SWAP1 POP SWAP2 SWAP1 POP JUMP JUMPDEST PUSH0 DUP3 DUP3 MSTORE PUSH1 0x20 DUP3 ADD SWAP1 POP SWAP3 SWAP2 POP POP JUMP JUMPDEST DUP3 DUP2 DUP4 MCOPY PUSH0 DUP4 DUP4 ADD MSTORE POP POP POP JUMP JUMPDEST PUSH0 PUSH1 0x1F NOT PUSH1 0x1F DUP4 ADD AND SWAP1 POP SWAP2 SWAP1 POP JUMP JUMPDEST PUSH0 PUSH2 0x6B9 DUP3 PUSH2 0x677 JUMP JUMPDEST PUSH2 0x6C3 DUP2 DUP6 PUSH2 0x681 JUMP JUMPDEST SWAP4 POP PUSH2 0x6D3 DUP2 DUP6 PUSH1 0x20 DUP7 ADD PUSH2 0x691 JUMP JUMPDEST PUSH2 0x6DC DUP2 PUSH2 0x69F JUMP JUMPDEST DUP5 ADD SWAP2 POP POP SWAP3 SWAP2 POP POP JUMP JUMPDEST PUSH0 DUP2 ISZERO ISZERO SWAP1 POP SWAP2 SWAP1 POP JUMP JUMPDEST PUSH2 0x6FB DUP2 PUSH2 0x6E7 JUMP JUMPDEST DUP3 MSTORE POP POP JUMP JUMPDEST PUSH0 PUSH1 0x80 DUP3 ADD SWAP1 POP DUP2 DUP2 SUB PUSH0 DUP4 ADD MSTORE PUSH2 0x719 DUP2 DUP8 PUSH2 0x6AF JUMP JUMPDEST SWAP1 POP DUP2 DUP2 SUB PUSH1 0x20 DUP4 ADD MSTORE PUSH2 0x72D DUP2 DUP7 PUSH2 0x6AF JUMP JUMPDEST SWAP1 POP DUP2 DUP2 SUB PUSH1 0x40 DUP4 ADD MSTORE PUSH2 0x741 DUP2 DUP6 PUSH2 0x6AF JUMP JUMPDEST SWAP1 POP PUSH2 0x750 PUSH1 0x60 DUP4 ADD DUP5 PUSH2 0x6F2 JUMP JUMPDEST SWAP6 SWAP5 POP POP POP POP POP JUMP JUMPDEST PUSH0 DUP1 REVERT JUMPDEST PUSH0 DUP1 REVERT JUMPDEST PUSH32 0x4E487B7100000000000000000000000000000000000000000000000000000000 PUSH0 MSTORE PUSH1 0x41 PUSH1 0x4 MSTORE PUSH1 0x24 PUSH0 REVERT JUMPDEST PUSH2 0x797 DUP3 PUSH2 0x69F JUMP JUMPDEST DUP2 ADD DUP2 DUP2 LT PUSH8 0xFFFFFFFFFFFFFFFF DUP3 GT OR ISZERO PUSH2 0x7B6 JUMPI PUSH2 0x7B5 PUSH2 0x761 JUMP JUMPDEST JUMPDEST DUP1 PUSH1 0x40 MSTORE POP POP POP JUMP JUMPDEST PUSH0 PUSH2 0x7C8 PUSH2 0x608 JUMP JUMPDEST SWAP1 POP PUSH2 0x7D4 DUP3 DUP3 PUSH2 0x78E JUMP JUMPDEST SWAP2 SWAP1 POP JUMP JUMPDEST PUSH0 PUSH8 0xFFFFFFFFFFFFFFFF DUP3 GT ISZERO PUSH2 0x7F3 JUMPI PUSH2 0x7F2 PUSH2 0x761 JUMP JUMPDEST JUMPDEST PUSH2 0x7FC DUP3 PUSH2 0x69F JUMP JUMPDEST SWAP1 POP PUSH1 0x20 DUP2 ADD SWAP1 POP SWAP2 SWAP1 POP JUMP JUMPDEST DUP3 DUP2 DUP4 CALLDATACOPY PUSH0 DUP4 DUP4 ADD MSTORE POP POP POP JUMP JUMPDEST PUSH0 PUSH2 0x829 PUSH2 0x824 DUP5 PUSH2 0x7D9 JUMP JUMPDEST PUSH2 0x7BF JUMP JUMPDEST SWAP1 POP DUP3 DUP2 MSTORE PUSH1 0x20 DUP2 ADD DUP5 DUP5 DUP5 ADD GT ISZERO PUSH2 0x845 JUMPI PUSH2 0x844 PUSH2 0x75D JUMP JUMPDEST JUMPDEST PUSH2 0x850 DUP5 DUP3 DUP6 PUSH2 0x809 JUMP JUMPDEST POP SWAP4 SWAP3 POP POP POP JUMP JUMPDEST PUSH0 DUP3 PUSH1 0x1F DUP4 ADD SLT PUSH2 0x86C JUMPI PUSH2 0x86B PUSH2 0x759 JUMP JUMPDEST JUMPDEST DUP2 CALLDATALOAD PUSH2 0x87C DUP5 DUP3 PUSH1 0x20 DUP7 ADD PUSH2 0x817 JUMP JUMPDEST SWAP2 POP POP SWAP3 SWAP2 POP POP JUMP JUMPDEST PUSH0 DUP1 PUSH0 DUP1 PUSH1 0x80 DUP6 DUP8 SUB SLT ISZERO PUSH2 0x89D JUMPI PUSH2 0x89C PUSH2 0x611 JUMP JUMPDEST JUMPDEST PUSH0 PUSH2 0x8AA DUP8 DUP3 DUP9 ADD PUSH2 0x638 JUMP JUMPDEST SWAP5 POP POP PUSH1 0x20 DUP6 ADD CALLDATALOAD PUSH8 0xFFFFFFFFFFFFFFFF DUP2 GT ISZERO PUSH2 0x8CB JUMPI PUSH2 0x8CA PUSH2 0x615 JUMP JUMPDEST JUMPDEST PUSH2 0x8D7 DUP8 DUP3 DUP9 ADD PUSH2 0x858 JUMP JUMPDEST SWAP4 POP POP PUSH1 0x40 DUP6 ADD CALLDATALOAD PUSH8 0xFFFFFFFFFFFFFFFF DUP2 GT ISZERO PUSH2 0x8F8 JUMPI PUSH2 0x8F7 PUSH2 0x615 JUMP JUMPDEST JUMPDEST PUSH2 0x904 DUP8 DUP3 DUP9 ADD PUSH2 0x858 JUMP JUMPDEST SWAP3 POP POP PUSH1 0x60 DUP6 ADD CALLDATALOAD PUSH8 0xFFFFFFFFFFFFFFFF DUP2 GT ISZERO PUSH2 0x925 JUMPI PUSH2 0x924 PUSH2 0x615 JUMP JUMPDEST JUMPDEST PUSH2 0x931 DUP8 DUP3 DUP9 ADD PUSH2 0x858 JUMP JUMPDEST SWAP2 POP POP SWAP3 SWAP6 SWAP2 SWAP5 POP SWAP3 POP JUMP JUMPDEST PUSH0 PUSH20 0xFFFFFFFFFFFFFFFFFFFFFFFFFFFFFFFFFFFFFFFF DUP3 AND SWAP1 POP SWAP2 SWAP1 POP JUMP JUMPDEST PUSH0 PUSH2 0x966 DUP3 PUSH2 0x93D JUMP JUMPDEST SWAP1 POP SWAP2 SWAP1 POP JUMP JUMPDEST PUSH2 0x976 DUP2 PUSH2 0x95C JUMP JUMPDEST DUP3 MSTORE POP POP JUMP JUMPDEST PUSH0 PUSH1 0x20 DUP3 ADD SWAP1 POP PUSH2 0x98F PUSH0 DUP4 ADD DUP5 PUSH2 0x96D JUMP JUMPDEST SWAP3 SWAP2 POP POP JUMP JUMPDEST PUSH0 PUSH1 0x20 DUP3 ADD SWAP1 POP PUSH2 0x9A8 PUSH0 DUP4 ADD DUP5 PUSH2 0x6F2 JUMP JUMPDEST SWAP3 SWAP2 POP POP JUMP JUMPDEST PUSH32 0x4F6E6C7920746865206F776E65722063616E2065786563757465207468697320 PUSH0 DUP3 ADD MSTORE PUSH32 0x616374696F6E2E00000000000000000000000000000000000000000000000000 PUSH1 0x20 DUP3 ADD MSTORE POP JUMP JUMPDEST PUSH0 PUSH2 0xA08 PUSH1 0x27 DUP4 PUSH2 0x681 JUMP JUMPDEST SWAP2 POP PUSH2 0xA13 DUP3 PUSH2 0x9AE JUMP JUMPDEST PUSH1 0x40 DUP3 ADD SWAP1 POP SWAP2 SWAP1 POP JUMP JUMPDEST PUSH0 PUSH1 0x20 DUP3 ADD SWAP1 POP DUP2 DUP2 SUB PUSH0 DUP4 ADD MSTORE PUSH2 0xA35 DUP2 PUSH2 0x9FC JUMP JUMPDEST SWAP1 POP SWAP2 SWAP1 POP JUMP JUMPDEST PUSH32 0x436572746966696361746520646F65736E277420666F756E64206F7220646F65 PUSH0 DUP3 ADD MSTORE PUSH32 0x736E27742065786973742E000000000000000000000000000000000000000000 PUSH1 0x20 DUP3 ADD MSTORE POP JUMP JUMPDEST PUSH0 PUSH2 0xA96 PUSH1 0x2B DUP4 PUSH2 0x681 JUMP JUMPDEST SWAP2 POP PUSH2 0xAA1 DUP3 PUSH2 0xA3C JUMP JUMPDEST PUSH1 0x40 DUP3 ADD SWAP1 POP SWAP2 SWAP1 POP JUMP JUMPDEST PUSH0 PUSH1 0x20 DUP3 ADD SWAP1 POP DUP2 DUP2 SUB PUSH0 DUP4 ADD MSTORE PUSH2 0xAC3 DUP2 PUSH2 0xA8A JUMP JUMPDEST SWAP1 POP SWAP2 SWAP1 POP JUMP JUMPDEST PUSH32 0x4E487B7100000000000000000000000000000000000000000000000000000000 PUSH0 MSTORE PUSH1 0x22 PUSH1 0x4 MSTORE PUSH1 0x24 PUSH0 REVERT JUMPDEST PUSH0 PUSH1 0x2 DUP3 DIV SWAP1 POP PUSH1 0x1 DUP3 AND DUP1 PUSH2 0xB0E JUMPI PUSH1 0x7F DUP3 AND SWAP2 POP JUMPDEST PUSH1 0x20 DUP3 LT DUP2 SUB PUSH2 0xB21 JUMPI PUSH2 0xB20 PUSH2 0xACA JUMP JUMPDEST JUMPDEST POP SWAP2 SWAP1 POP JUMP JUMPDEST PUSH32 0x4365727469666963617465207769746820746869732049442063657274696669 PUSH0 DUP3 ADD MSTORE PUSH32 0x6361746520616C7265616479206578697374732E000000000000000000000000 PUSH1 0x20 DUP3 ADD MSTORE POP JUMP JUMPDEST PUSH0 PUSH2 0xB81 PUSH1 0x34 DUP4 PUSH2 0x681 JUMP JUMPDEST SWAP2 POP PUSH2 0xB8C DUP3 PUSH2 0xB27 JUMP JUMPDEST PUSH1 0x40 DUP3 ADD SWAP1 POP SWAP2 SWAP1 POP JUMP JUMPDEST PUSH0 PUSH1 0x20 DUP3 ADD SWAP1 POP DUP2 DUP2 SUB PUSH0 DUP4 ADD MSTORE PUSH2 0xBAE DUP2 PUSH2 0xB75 JUMP JUMPDEST SWAP1 POP SWAP2 SWAP1 POP JUMP JUMPDEST PUSH0 DUP2 SWAP1 POP DUP2 PUSH0 MSTORE PUSH1 0x20 PUSH0 KECCAK256 SWAP1 POP SWAP2 SWAP1 POP JUMP JUMPDEST PUSH0 PUSH1 0x20 PUSH1 0x1F DUP4 ADD DIV SWAP1 POP SWAP2 SWAP1 POP JUMP JUMPDEST PUSH0 DUP3 DUP3 SHL SWAP1 POP SWAP3 SWAP2 POP POP JUMP JUMPDEST PUSH0 PUSH1 0x8 DUP4 MUL PUSH2 0xC11 PUSH32 0xFFFFFFFFFFFFFFFFFFFFFFFFFFFFFFFFFFFFFFFFFFFFFFFFFFFFFFFFFFFFFFFF DUP3 PUSH2 0xBD6 JUMP JUMPDEST PUSH2 0xC1B DUP7 DUP4 PUSH2 0xBD6 JUMP JUMPDEST SWAP6 POP DUP1 NOT DUP5 AND SWAP4 POP DUP1 DUP7 AND DUP5 OR SWAP3 POP POP POP SWAP4 SWAP3 POP POP POP JUMP JUMPDEST PUSH0 DUP2 SWAP1 POP SWAP2 SWAP1 POP JUMP JUMPDEST PUSH0 PUSH2 0xC56 PUSH2 0xC51 PUSH2 0xC4C DUP5 PUSH2 0x619 JUMP JUMPDEST PUSH2 0xC33 JUMP JUMPDEST PUSH2 0x619 JUMP JUMPDEST SWAP1 POP SWAP2 SWAP1 POP JUMP JUMPDEST PUSH0 DUP2 SWAP1 POP SWAP2 SWAP1 POP JUMP JUMPDEST PUSH2 0xC6F DUP4 PUSH2 0xC3C JUMP JUMPDEST PUSH2 0xC83 PUSH2 0xC7B DUP3 PUSH2 0xC5D JUMP JUMPDEST DUP5 DUP5 SLOAD PUSH2 0xBE2 JUMP JUMPDEST DUP3 SSTORE POP POP POP POP JUMP JUMPDEST PUSH0 SWAP1 JUMP JUMPDEST PUSH2 0xC97 PUSH2 0xC8B JUMP JUMPDEST PUSH2 0xCA2 DUP2 DUP5 DUP5 PUSH2 0xC66 JUMP JUMPDEST POP POP POP JUMP JUMPDEST JUMPDEST DUP2 DUP2 LT ISZERO PUSH2 0xCC5 JUMPI PUSH2 0xCBA PUSH0 DUP3 PUSH2 0xC8F JUMP JUMPDEST PUSH1 0x1 DUP2 ADD SWAP1 POP PUSH2 0xCA8 JUMP JUMPDEST POP POP JUMP JUMPDEST PUSH1 0x1F DUP3 GT ISZERO PUSH2 0xD0A JUMPI PUSH2 0xCDB DUP2 PUSH2 0xBB5 JUMP JUMPDEST PUSH2 0xCE4 DUP5 PUSH2 0xBC7 JUMP JUMPDEST DUP2 ADD PUSH1 0x20 DUP6 LT ISZERO PUSH2 0xCF3 JUMPI DUP2 SWAP1 POP JUMPDEST PUSH2 0xD07 PUSH2 0xCFF DUP6 PUSH2 0xBC7 JUMP JUMPDEST DUP4 ADD DUP3 PUSH2 0xCA7 JUMP JUMPDEST POP POP JUMPDEST POP POP POP JUMP JUMPDEST PUSH0 DUP3 DUP3 SHR SWAP1 POP SWAP3 SWAP2 POP POP JUMP JUMPDEST PUSH0 PUSH2 0xD2A PUSH0 NOT DUP5 PUSH1 0x8 MUL PUSH2 0xD0F JUMP JUMPDEST NOT DUP1 DUP4 AND SWAP2 POP POP SWAP3 SWAP2 POP POP JUMP JUMPDEST PUSH0 PUSH2 0xD42 DUP4 DUP4 PUSH2 0xD1B JUMP JUMPDEST SWAP2 POP DUP3 PUSH1 0x2 MUL DUP3 OR SWAP1 POP SWAP3 SWAP2 POP POP JUMP JUMPDEST PUSH2 0xD5B DUP3 PUSH2 0x677 JUMP JUMPDEST PUSH8 0xFFFFFFFFFFFFFFFF DUP2 GT ISZERO PUSH2 0xD74 JUMPI PUSH2 0xD73 PUSH2 0x761 JUMP JUMPDEST JUMPDEST PUSH2 0xD7E DUP3 SLOAD PUSH2 0xAF7 JUMP JUMPDEST PUSH2 0xD89 DUP3 DUP3 DUP6 PUSH2 0xCC9 JUMP JUMPDEST PUSH0 PUSH1 0x20 SWAP1 POP PUSH1 0x1F DUP4 GT PUSH1 0x1 DUP2 EQ PUSH2 0xDBA JUMPI PUSH0 DUP5 ISZERO PUSH2 0xDA8 JUMPI DUP3 DUP8 ADD MLOAD SWAP1 POP JUMPDEST PUSH2 0xDB2 DUP6 DUP3 PUSH2 0xD37 JUMP JUMPDEST DUP7 SSTORE POP PUSH2 0xE19 JUMP JUMPDEST PUSH1 0x1F NOT DUP5 AND PUSH2 0xDC8 DUP7 PUSH2 0xBB5 JUMP JUMPDEST PUSH0 JUMPDEST DUP3 DUP2 LT ISZERO PUSH2 0xDEF JUMPI DUP5 DUP10 ADD MLOAD DUP3 SSTORE PUSH1 0x1 DUP3 ADD SWAP2 POP PUSH1 0x20 DUP6 ADD SWAP5 POP PUSH1 0x20 DUP2 ADD SWAP1 POP PUSH2 0xDCA JUMP JUMPDEST DUP7 DUP4 LT ISZERO PUSH2 0xE0C JUMPI DUP5 DUP10 ADD MLOAD PUSH2 0xE08 PUSH1 0x1F DUP10 AND DUP3 PUSH2 0xD1B JUMP JUMPDEST DUP4 SSTORE POP JUMPDEST PUSH1 0x1 PUSH1 0x2 DUP9 MUL ADD DUP9 SSTORE POP POP POP JUMPDEST POP POP POP POP POP POP JUMP JUMPDEST PUSH0 PUSH1 0x40 DUP3 ADD SWAP1 POP DUP2 DUP2 SUB PUSH0 DUP4 ADD MSTORE PUSH2 0xE39 DUP2 DUP6 PUSH2 0x6AF JUMP JUMPDEST SWAP1 POP DUP2 DUP2 SUB PUSH1 0x20 DUP4 ADD MSTORE PUSH2 0xE4D DUP2 DUP5 PUSH2 0x6AF JUMP JUMPDEST SWAP1 POP SWAP4 SWAP3 POP POP POP JUMP INVALID LOG2 PUSH5 0x6970667358 0x22 SLT KECCAK256 SELFBALANCE DUP13 CALLCODE 0xF6 0xBA PUSH20 0x922875CDEDFB2131698359832755A695AA6769B9 CALLER 0xD8 NOT DUP15 PUSH14 0xA864736F6C634300081A00330000 "
				},
				"gasEstimates": {
					"creation": {
						"codeDepositCost": "744800",
						"executionCost": "25042",
						"totalCost": "769842"
					},
					"external": {
						"certificates(uint256)": "infinite",
						"isCertificateValid(uint256)": "2882",
						"issueCertificate(uint256,string,string,string)": "infinite",
						"owner()": "2549",
						"revokeCertificate(uint256)": "29126"
					}
				},
				"methodIdentifiers": {
					"certificates(uint256)": "663b3e22",
					"isCertificateValid(uint256)": "a5ce413a",
					"issueCertificate(uint256,string,string,string)": "7cd44c23",
					"owner()": "8da5cb5b",
					"revokeCertificate(uint256)": "06f5497e"
				}
			},
			"storageLayout": {
				"storage": [
					{
						"astId": 3,
						"contract": "Certificates.sol:Certificates",
						"label": "owner",
						"offset": 0,
						"slot": "0",
						"type": "t_address"
					},
					{
						"astId": 17,
						"contract": "Certificates.sol:Certificates",
						"label": "certificates",
						"offset": 0,
						"slot": "1",
						"type": "t_mapping(t_uint256,t_struct(Certificate)12_storage)"
					}
				],
				"types": {
					"t_address": {
						"encoding": "inplace",
						"label": "address",
						"numberOfBytes": "20"
					},
					"t_bool": {
						"encoding": "inplace",
						"label": "bool",
						"numberOfBytes": "1"
					},
					"t_mapping(t_uint256,t_struct(Certificate)12_storage)": {
						"encoding": "mapping",
						"key": "t_uint256",
						"label": "mapping(uint256 => struct Certificates.Certificate)",
						"numberOfBytes": "32",
						"value": "t_struct(Certificate)12_storage"
					},
					"t_string_storage": {
						"encoding": "bytes",
						"label": "string",
						"numberOfBytes": "32"
					},
					"t_struct(Certificate)12_storage": {
						"encoding": "inplace",
						"label": "struct Certificates.Certificate",
						"members": [
							{
								"astId": 5,
								"contract": "Certificates.sol:Certificates",
								"label": "holderName",
								"offset": 0,
								"slot": "0",
								"type": "t_string_storage"
							},
							{
								"astId": 7,
								"contract": "Certificates.sol:Certificates",
								"label": "courseName",
								"offset": 0,
								"slot": "1",
								"type": "t_string_storage"
							},
							{
								"astId": 9,
								"contract": "Certificates.sol:Certificates",
								"label": "issueDate",
								"offset": 0,
								"slot": "2",
								"type": "t_string_storage"
							},
							{
								"astId": 11,
								"contract": "Certificates.sol:Certificates",
								"label": "isValid",
								"offset": 0,
								"slot": "3",
								"type": "t_bool"
							}
						],
						"numberOfBytes": "128"
					},
					"t_uint256": {
						"encoding": "inplace",
						"label": "uint256",
						"numberOfBytes": "32"
					}
				}
			},
			"userdoc": {
				"kind": "user",
				"methods": {},
				"version": 1
			}
		}
	}
}